{
  "contracts/multiSig_light.sol": {
    "MultiSigWallet_standard": {
      "abi": [
        {
          "inputs": [
            {
              "internalType": "address[]",
              "name": "_owners",
              "type": "address[]"
            },
            {
              "internalType": "uint256",
              "name": "_approvalsRequired",
              "type": "uint256"
            }
          ],
          "stateMutability": "nonpayable",
          "type": "constructor"
        },
        {
          "anonymous": false,
          "inputs": [
            {
              "indexed": true,
              "internalType": "address",
              "name": "owner",
              "type": "address"
            },
            {
              "indexed": true,
              "internalType": "uint256",
              "name": "txIndex",
              "type": "uint256"
            }
          ],
          "name": "ApproveTransaction",
          "type": "event"
        },
        {
          "anonymous": false,
          "inputs": [
            {
              "indexed": true,
              "internalType": "address",
              "name": "sender",
              "type": "address"
            },
            {
              "indexed": false,
              "internalType": "uint256",
              "name": "amount",
              "type": "uint256"
            }
          ],
          "name": "Deposit",
          "type": "event"
        },
        {
          "anonymous": false,
          "inputs": [
            {
              "indexed": true,
              "internalType": "address",
              "name": "owner",
              "type": "address"
            },
            {
              "indexed": true,
              "internalType": "uint256",
              "name": "txIndex",
              "type": "uint256"
            }
          ],
          "name": "ExecuteTransaction",
          "type": "event"
        },
        {
          "anonymous": false,
          "inputs": [
            {
              "indexed": true,
              "internalType": "address",
              "name": "owner",
              "type": "address"
            },
            {
              "indexed": true,
              "internalType": "uint256",
              "name": "txIndex",
              "type": "uint256"
            }
          ],
          "name": "ExecutionFailed",
          "type": "event"
        },
        {
          "anonymous": false,
          "inputs": [
            {
              "indexed": true,
              "internalType": "address",
              "name": "owner",
              "type": "address"
            },
            {
              "indexed": true,
              "internalType": "uint256",
              "name": "txIndex",
              "type": "uint256"
            }
          ],
          "name": "RevokeApproval",
          "type": "event"
        },
        {
          "anonymous": false,
          "inputs": [
            {
              "indexed": true,
              "internalType": "address",
              "name": "owner",
              "type": "address"
            },
            {
              "indexed": true,
              "internalType": "uint256",
              "name": "txID",
              "type": "uint256"
            },
            {
              "indexed": true,
              "internalType": "address",
              "name": "to",
              "type": "address"
            },
            {
              "indexed": false,
              "internalType": "uint256",
              "name": "value",
              "type": "uint256"
            },
            {
              "indexed": false,
              "internalType": "bytes",
              "name": "data",
              "type": "bytes"
            }
          ],
          "name": "SubmitTransaction",
          "type": "event"
        },
        {
          "inputs": [],
          "name": "approvalsRequired",
          "outputs": [
            {
              "internalType": "uint256",
              "name": "",
              "type": "uint256"
            }
          ],
          "stateMutability": "view",
          "type": "function"
        },
        {
          "inputs": [
            {
              "internalType": "uint256",
              "name": "_txID",
              "type": "uint256"
            }
          ],
          "name": "approveTransaction",
          "outputs": [],
          "stateMutability": "nonpayable",
          "type": "function"
        },
        {
          "inputs": [
            {
              "internalType": "uint256",
              "name": "_txIndex",
              "type": "uint256"
            }
          ],
          "name": "executeTransaction",
          "outputs": [],
          "stateMutability": "nonpayable",
          "type": "function"
        },
        {
          "inputs": [
            {
              "internalType": "uint256",
              "name": "",
              "type": "uint256"
            },
            {
              "internalType": "address",
              "name": "",
              "type": "address"
            }
          ],
          "name": "isApproved",
          "outputs": [
            {
              "internalType": "bool",
              "name": "",
              "type": "bool"
            }
          ],
          "stateMutability": "view",
          "type": "function"
        },
        {
          "inputs": [
            {
              "internalType": "address",
              "name": "",
              "type": "address"
            }
          ],
          "name": "isOwner",
          "outputs": [
            {
              "internalType": "bool",
              "name": "",
              "type": "bool"
            }
          ],
          "stateMutability": "view",
          "type": "function"
        },
        {
          "inputs": [
            {
              "internalType": "uint256",
              "name": "",
              "type": "uint256"
            }
          ],
          "name": "owners",
          "outputs": [
            {
              "internalType": "address",
              "name": "",
              "type": "address"
            }
          ],
          "stateMutability": "view",
          "type": "function"
        },
        {
          "inputs": [
            {
              "internalType": "uint256",
              "name": "_txID",
              "type": "uint256"
            }
          ],
          "name": "revokeApproval",
          "outputs": [],
          "stateMutability": "nonpayable",
          "type": "function"
        },
        {
          "inputs": [
            {
              "internalType": "address",
              "name": "_to",
              "type": "address"
            },
            {
              "internalType": "uint256",
              "name": "_value",
              "type": "uint256"
            },
            {
              "internalType": "bytes",
              "name": "_data",
              "type": "bytes"
            }
          ],
          "name": "submitTransaction",
          "outputs": [],
          "stateMutability": "nonpayable",
          "type": "function"
        },
        {
          "inputs": [
            {
              "internalType": "uint256",
              "name": "",
              "type": "uint256"
            }
          ],
          "name": "transactions",
          "outputs": [
            {
              "internalType": "address",
              "name": "to",
              "type": "address"
            },
            {
              "internalType": "uint256",
              "name": "value",
              "type": "uint256"
            },
            {
              "internalType": "bytes",
              "name": "data",
              "type": "bytes"
            },
            {
              "internalType": "bool",
              "name": "executed",
              "type": "bool"
            },
            {
              "internalType": "uint256",
              "name": "numApprovals",
              "type": "uint256"
            }
          ],
          "stateMutability": "view",
          "type": "function"
        },
        {
          "stateMutability": "payable",
          "type": "receive"
        }
      ],
      "evm": {
        "bytecode": {
          "linkReferences": {},
          "object": "60806040523480156200001157600080fd5b50604051620021393803806200213983398181016040528101906200003791906200050d565b60008251116200007e576040517f08c379a00000000000000000000000000000000000000000000000000000000081526004016200007590620005d4565b60405180910390fd5b60008111801562000090575081518111155b620000d2576040517f08c379a0000000000000000000000000000000000000000000000000000000008152600401620000c9906200066c565b60405180910390fd5b60005b8251811015620002d4576000838281518110620000f757620000f66200068e565b5b60200260200101519050600073ffffffffffffffffffffffffffffffffffffffff168173ffffffffffffffffffffffffffffffffffffffff160362000173576040517f08c379a00000000000000000000000000000000000000000000000000000000081526004016200016a906200070d565b60405180910390fd5b600160008273ffffffffffffffffffffffffffffffffffffffff1673ffffffffffffffffffffffffffffffffffffffff16815260200190815260200160002060009054906101000a900460ff161562000203576040517f08c379a0000000000000000000000000000000000000000000000000000000008152600401620001fa906200077f565b60405180910390fd5b60018060008373ffffffffffffffffffffffffffffffffffffffff1673ffffffffffffffffffffffffffffffffffffffff16815260200190815260200160002060006101000a81548160ff0219169083151502179055506000819080600181540180825580915050600190039060005260206000200160009091909190916101000a81548173ffffffffffffffffffffffffffffffffffffffff021916908373ffffffffffffffffffffffffffffffffffffffff160217905550508080620002cb90620007d0565b915050620000d5565b508060028190555050506200081d565b6000604051905090565b600080fd5b600080fd5b600080fd5b6000601f19601f8301169050919050565b7f4e487b7100000000000000000000000000000000000000000000000000000000600052604160045260246000fd5b6200034882620002fd565b810181811067ffffffffffffffff821117156200036a57620003696200030e565b5b80604052505050565b60006200037f620002e4565b90506200038d82826200033d565b919050565b600067ffffffffffffffff821115620003b057620003af6200030e565b5b602082029050602081019050919050565b600080fd5b600073ffffffffffffffffffffffffffffffffffffffff82169050919050565b6000620003f382620003c6565b9050919050565b6200040581620003e6565b81146200041157600080fd5b50565b6000815190506200042581620003fa565b92915050565b6000620004426200043c8462000392565b62000373565b90508083825260208201905060208402830185811115620004685762000467620003c1565b5b835b8181101562000495578062000480888262000414565b8452602084019350506020810190506200046a565b5050509392505050565b600082601f830112620004b757620004b6620002f8565b5b8151620004c98482602086016200042b565b91505092915050565b6000819050919050565b620004e781620004d2565b8114620004f357600080fd5b50565b6000815190506200050781620004dc565b92915050565b60008060408385031215620005275762000526620002ee565b5b600083015167ffffffffffffffff811115620005485762000547620002f3565b5b62000556858286016200049f565b92505060206200056985828601620004f6565b9150509250929050565b600082825260208201905092915050565b7f6f776e6572732072657175697265640000000000000000000000000000000000600082015250565b6000620005bc600f8362000573565b9150620005c98262000584565b602082019050919050565b60006020820190508181036000830152620005ef81620005ad565b9050919050565b7f696e76616c6964206e756d626572206f6620726571756972656420636f6e666960008201527f726d6174696f6e73000000000000000000000000000000000000000000000000602082015250565b60006200065460288362000573565b91506200066182620005f6565b604082019050919050565b60006020820190508181036000830152620006878162000645565b9050919050565b7f4e487b7100000000000000000000000000000000000000000000000000000000600052603260045260246000fd5b7f696e76616c6964206f776e657200000000000000000000000000000000000000600082015250565b6000620006f5600d8362000573565b91506200070282620006bd565b602082019050919050565b600060208201905081810360008301526200072881620006e6565b9050919050565b7f6f776e6572206e6f7420756e6971756500000000000000000000000000000000600082015250565b60006200076760108362000573565b915062000774826200072f565b602082019050919050565b600060208201905081810360008301526200079a8162000758565b9050919050565b7f4e487b7100000000000000000000000000000000000000000000000000000000600052601160045260246000fd5b6000620007dd82620004d2565b91507fffffffffffffffffffffffffffffffffffffffffffffffffffffffffffffffff8203620008125762000811620007a1565b5b600182019050919050565b61190c806200082d6000396000f3fe60806040526004361061008a5760003560e01c80639ace38c2116100595780639ace38c2146101c4578063b1e130fc14610205578063c64274741461022e578063ea1d59c914610257578063ee22610b14610282576100df565b8063025e7c27146100e4578063242232d1146101215780632f54bf6e1461014a57806356c3163714610187576100df565b366100df573373ffffffffffffffffffffffffffffffffffffffff167fe1fffcc4923d04b559f4d29a8bfc6cda04eb5b0d3c460751c2402c5c5cc9109c346040516100d59190610fc5565b60405180910390a2005b600080fd5b3480156100f057600080fd5b5061010b60048036038101906101069190611020565b6102ab565b604051610118919061108e565b60405180910390f35b34801561012d57600080fd5b5061014860048036038101906101439190611020565b6102ea565b005b34801561015657600080fd5b50610171600480360381019061016c91906110d5565b6105c7565b60405161017e919061111d565b60405180910390f35b34801561019357600080fd5b506101ae60048036038101906101a99190611138565b6105e7565b6040516101bb919061111d565b60405180910390f35b3480156101d057600080fd5b506101eb60048036038101906101e69190611020565b610616565b6040516101fc959493929190611211565b60405180910390f35b34801561021157600080fd5b5061022c60048036038101906102279190611020565b610711565b005b34801561023a57600080fd5b50610255600480360381019061025091906113a0565b6109eb565b005b34801561026357600080fd5b5061026c610bf5565b6040516102799190610fc5565b60405180910390f35b34801561028e57600080fd5b506102a960048036038101906102a49190611020565b610bfb565b005b600081815481106102bb57600080fd5b906000526020600020016000915054906101000a900473ffffffffffffffffffffffffffffffffffffffff1681565b600160003373ffffffffffffffffffffffffffffffffffffffff1673ffffffffffffffffffffffffffffffffffffffff16815260200190815260200160002060009054906101000a900460ff16610376576040517f08c379a000000000000000000000000000000000000000000000000000000000815260040161036d9061146c565b60405180910390fd5b8060048054905081106103be576040517f08c379a00000000000000000000000000000000000000000000000000000000081526004016103b5906114d8565b60405180910390fd5b81600481815481106103d3576103d26114f8565b5b906000526020600020906005020160030160009054906101000a900460ff1615610432576040517f08c379a000000000000000000000000000000000000000000000000000000000815260040161042990611573565b60405180910390fd5b826003600082815260200190815260200160002060003373ffffffffffffffffffffffffffffffffffffffff1673ffffffffffffffffffffffffffffffffffffffff16815260200190815260200160002060009054906101000a900460ff16156104d1576040517f08c379a00000000000000000000000000000000000000000000000000000000081526004016104c8906115df565b60405180910390fd5b6000600485815481106104e7576104e66114f8565b5b90600052602060002090600502019050600181600401600082825461050c919061162e565b9250508190555060016003600087815260200190815260200160002060003373ffffffffffffffffffffffffffffffffffffffff1673ffffffffffffffffffffffffffffffffffffffff16815260200190815260200160002060006101000a81548160ff021916908315150217905550843373ffffffffffffffffffffffffffffffffffffffff167ffa624aadd8a0eae4ee975eae5cf13c9803b361b7fa2d832427db6207c088219360405160405180910390a35050505050565b60016020528060005260406000206000915054906101000a900460ff1681565b60036020528160005260406000206020528060005260406000206000915091509054906101000a900460ff1681565b6004818154811061062657600080fd5b90600052602060002090600502016000915090508060000160009054906101000a900473ffffffffffffffffffffffffffffffffffffffff1690806001015490806002018054610675906116b3565b80601f01602080910402602001604051908101604052809291908181526020018280546106a1906116b3565b80156106ee5780601f106106c3576101008083540402835291602001916106ee565b820191906000526020600020905b8154815290600101906020018083116106d157829003601f168201915b5050505050908060030160009054906101000a900460ff16908060040154905085565b600160003373ffffffffffffffffffffffffffffffffffffffff1673ffffffffffffffffffffffffffffffffffffffff16815260200190815260200160002060009054906101000a900460ff1661079d576040517f08c379a00000000000000000000000000000000000000000000000000000000081526004016107949061146c565b60405180910390fd5b8060048054905081106107e5576040517f08c379a00000000000000000000000000000000000000000000000000000000081526004016107dc906114d8565b60405180910390fd5b81600481815481106107fa576107f96114f8565b5b906000526020600020906005020160030160009054906101000a900460ff1615610859576040517f08c379a000000000000000000000000000000000000000000000000000000000815260040161085090611573565b60405180910390fd5b60006004848154811061086f5761086e6114f8565b5b906000526020600020906005020190506003600085815260200190815260200160002060003373ffffffffffffffffffffffffffffffffffffffff1673ffffffffffffffffffffffffffffffffffffffff16815260200190815260200160002060009054906101000a900460ff1661091c576040517f08c379a000000000000000000000000000000000000000000000000000000000815260040161091390611730565b60405180910390fd5b60018160040160008282546109319190611750565b9250508190555060006003600086815260200190815260200160002060003373ffffffffffffffffffffffffffffffffffffffff1673ffffffffffffffffffffffffffffffffffffffff16815260200190815260200160002060006101000a81548160ff021916908315150217905550833373ffffffffffffffffffffffffffffffffffffffff167f1e75c0948730226138e58d1e7446b6167b5159a6904c3ac4597714f298d13df260405160405180910390a350505050565b600160003373ffffffffffffffffffffffffffffffffffffffff1673ffffffffffffffffffffffffffffffffffffffff16815260200190815260200160002060009054906101000a900460ff16610a77576040517f08c379a0000000000000000000000000000000000000000000000000000000008152600401610a6e9061146c565b60405180910390fd5b6000600480549050905060046040518060a001604052808673ffffffffffffffffffffffffffffffffffffffff1681526020018581526020018481526020016000151581526020016000815250908060018154018082558091505060019003906000526020600020906005020160009091909190915060008201518160000160006101000a81548173ffffffffffffffffffffffffffffffffffffffff021916908373ffffffffffffffffffffffffffffffffffffffff160217905550602082015181600101556040820151816002019080519060200190610b5a929190610f09565b5060608201518160030160006101000a81548160ff0219169083151502179055506080820151816004015550508373ffffffffffffffffffffffffffffffffffffffff16813373ffffffffffffffffffffffffffffffffffffffff167fd5a05bf70715ad82a09a756320284a1b54c9ff74cd0f8cce6219e79b563fe59d8686604051610be7929190611784565b60405180910390a450505050565b60025481565b600160003373ffffffffffffffffffffffffffffffffffffffff1673ffffffffffffffffffffffffffffffffffffffff16815260200190815260200160002060009054906101000a900460ff16610c87576040517f08c379a0000000000000000000000000000000000000000000000000000000008152600401610c7e9061146c565b60405180910390fd5b806004805490508110610ccf576040517f08c379a0000000000000000000000000000000000000000000000000000000008152600401610cc6906114d8565b60405180910390fd5b8160048181548110610ce457610ce36114f8565b5b906000526020600020906005020160030160009054906101000a900460ff1615610d43576040517f08c379a0000000000000000000000000000000000000000000000000000000008152600401610d3a90611573565b60405180910390fd5b600060048481548110610d5957610d586114f8565b5b9060005260206000209060050201905060025481600401541015610db2576040517f08c379a0000000000000000000000000000000000000000000000000000000008152600401610da990611800565b60405180910390fd5b60018160030160006101000a81548160ff02191690831515021790555060008160000160009054906101000a900473ffffffffffffffffffffffffffffffffffffffff1673ffffffffffffffffffffffffffffffffffffffff16826001015483600201604051610e2291906118bf565b60006040518083038185875af1925050503d8060008114610e5f576040519150601f19603f3d011682016040523d82523d6000602084013e610e64565b606091505b505090506001151581151503610ebd57843373ffffffffffffffffffffffffffffffffffffffff167f5445f318f4f5fcfb66592e68e0cc5822aa15664039bd5f0ffde24c5a8142b1ac60405160405180910390a3610f02565b843373ffffffffffffffffffffffffffffffffffffffff167fa2bd93be155d3bc3e3f43d3b4ac0e02cbeb3fe35ca79384a7a18ff308d5a59c860405160405180910390a35b5050505050565b828054610f15906116b3565b90600052602060002090601f016020900481019282610f375760008555610f7e565b82601f10610f5057805160ff1916838001178555610f7e565b82800160010185558215610f7e579182015b82811115610f7d578251825591602001919060010190610f62565b5b509050610f8b9190610f8f565b5090565b5b80821115610fa8576000816000905550600101610f90565b5090565b6000819050919050565b610fbf81610fac565b82525050565b6000602082019050610fda6000830184610fb6565b92915050565b6000604051905090565b600080fd5b600080fd5b610ffd81610fac565b811461100857600080fd5b50565b60008135905061101a81610ff4565b92915050565b60006020828403121561103657611035610fea565b5b60006110448482850161100b565b91505092915050565b600073ffffffffffffffffffffffffffffffffffffffff82169050919050565b60006110788261104d565b9050919050565b6110888161106d565b82525050565b60006020820190506110a3600083018461107f565b92915050565b6110b28161106d565b81146110bd57600080fd5b50565b6000813590506110cf816110a9565b92915050565b6000602082840312156110eb576110ea610fea565b5b60006110f9848285016110c0565b91505092915050565b60008115159050919050565b61111781611102565b82525050565b6000602082019050611132600083018461110e565b92915050565b6000806040838503121561114f5761114e610fea565b5b600061115d8582860161100b565b925050602061116e858286016110c0565b9150509250929050565b600081519050919050565b600082825260208201905092915050565b60005b838110156111b2578082015181840152602081019050611197565b838111156111c1576000848401525b50505050565b6000601f19601f8301169050919050565b60006111e382611178565b6111ed8185611183565b93506111fd818560208601611194565b611206816111c7565b840191505092915050565b600060a082019050611226600083018861107f565b6112336020830187610fb6565b818103604083015261124581866111d8565b9050611254606083018561110e565b6112616080830184610fb6565b9695505050505050565b600080fd5b600080fd5b7f4e487b7100000000000000000000000000000000000000000000000000000000600052604160045260246000fd5b6112ad826111c7565b810181811067ffffffffffffffff821117156112cc576112cb611275565b5b80604052505050565b60006112df610fe0565b90506112eb82826112a4565b919050565b600067ffffffffffffffff82111561130b5761130a611275565b5b611314826111c7565b9050602081019050919050565b82818337600083830152505050565b600061134361133e846112f0565b6112d5565b90508281526020810184848401111561135f5761135e611270565b5b61136a848285611321565b509392505050565b600082601f8301126113875761138661126b565b5b8135611397848260208601611330565b91505092915050565b6000806000606084860312156113b9576113b8610fea565b5b60006113c7868287016110c0565b93505060206113d88682870161100b565b925050604084013567ffffffffffffffff8111156113f9576113f8610fef565b5b61140586828701611372565b9150509250925092565b600082825260208201905092915050565b7f6e6f74206f776e65720000000000000000000000000000000000000000000000600082015250565b600061145660098361140f565b915061146182611420565b602082019050919050565b6000602082019050818103600083015261148581611449565b9050919050565b7f747820646f6573206e6f74206578697374000000000000000000000000000000600082015250565b60006114c260118361140f565b91506114cd8261148c565b602082019050919050565b600060208201905081810360008301526114f1816114b5565b9050919050565b7f4e487b7100000000000000000000000000000000000000000000000000000000600052603260045260246000fd5b7f747820616c726561647920657865637574656400000000000000000000000000600082015250565b600061155d60138361140f565b915061156882611527565b602082019050919050565b6000602082019050818103600083015261158c81611550565b9050919050565b7f747820616c726561647920636f6e6669726d6564000000000000000000000000600082015250565b60006115c960148361140f565b91506115d482611593565b602082019050919050565b600060208201905081810360008301526115f8816115bc565b9050919050565b7f4e487b7100000000000000000000000000000000000000000000000000000000600052601160045260246000fd5b600061163982610fac565b915061164483610fac565b9250827fffffffffffffffffffffffffffffffffffffffffffffffffffffffffffffffff03821115611679576116786115ff565b5b828201905092915050565b7f4e487b7100000000000000000000000000000000000000000000000000000000600052602260045260246000fd5b600060028204905060018216806116cb57607f821691505b6020821081036116de576116dd611684565b5b50919050565b7f7478206e6f7420636f6e6669726d656400000000000000000000000000000000600082015250565b600061171a60108361140f565b9150611725826116e4565b602082019050919050565b600060208201905081810360008301526117498161170d565b9050919050565b600061175b82610fac565b915061176683610fac565b925082821015611779576117786115ff565b5b828203905092915050565b60006040820190506117996000830185610fb6565b81810360208301526117ab81846111d8565b90509392505050565b7f63616e6e6f742065786563757465207478000000000000000000000000000000600082015250565b60006117ea60118361140f565b91506117f5826117b4565b602082019050919050565b60006020820190508181036000830152611819816117dd565b9050919050565b600081905092915050565b60008190508160005260206000209050919050565b6000815461184d816116b3565b6118578186611820565b945060018216600081146118725760018114611883576118b6565b60ff198316865281860193506118b6565b61188c8561182b565b60005b838110156118ae5781548189015260018201915060208101905061188f565b838801955050505b50505092915050565b60006118cb8284611840565b91508190509291505056fea2646970667358221220e83bec8d28afe7fecda730029bd24de34d208ef6358d3028a5d7cf882b0b894f64736f6c634300080d0033",
          "opcodes": "PUSH1 0x80 PUSH1 0x40 MSTORE CALLVALUE DUP1 ISZERO PUSH3 0x11 JUMPI PUSH1 0x0 DUP1 REVERT JUMPDEST POP PUSH1 0x40 MLOAD PUSH3 0x2139 CODESIZE SUB DUP1 PUSH3 0x2139 DUP4 CODECOPY DUP2 DUP2 ADD PUSH1 0x40 MSTORE DUP2 ADD SWAP1 PUSH3 0x37 SWAP2 SWAP1 PUSH3 0x50D JUMP JUMPDEST PUSH1 0x0 DUP3 MLOAD GT PUSH3 0x7E JUMPI PUSH1 0x40 MLOAD PUSH32 0x8C379A000000000000000000000000000000000000000000000000000000000 DUP2 MSTORE PUSH1 0x4 ADD PUSH3 0x75 SWAP1 PUSH3 0x5D4 JUMP JUMPDEST PUSH1 0x40 MLOAD DUP1 SWAP2 SUB SWAP1 REVERT JUMPDEST PUSH1 0x0 DUP2 GT DUP1 ISZERO PUSH3 0x90 JUMPI POP DUP2 MLOAD DUP2 GT ISZERO JUMPDEST PUSH3 0xD2 JUMPI PUSH1 0x40 MLOAD PUSH32 0x8C379A000000000000000000000000000000000000000000000000000000000 DUP2 MSTORE PUSH1 0x4 ADD PUSH3 0xC9 SWAP1 PUSH3 0x66C JUMP JUMPDEST PUSH1 0x40 MLOAD DUP1 SWAP2 SUB SWAP1 REVERT JUMPDEST PUSH1 0x0 JUMPDEST DUP3 MLOAD DUP2 LT ISZERO PUSH3 0x2D4 JUMPI PUSH1 0x0 DUP4 DUP3 DUP2 MLOAD DUP2 LT PUSH3 0xF7 JUMPI PUSH3 0xF6 PUSH3 0x68E JUMP JUMPDEST JUMPDEST PUSH1 0x20 MUL PUSH1 0x20 ADD ADD MLOAD SWAP1 POP PUSH1 0x0 PUSH20 0xFFFFFFFFFFFFFFFFFFFFFFFFFFFFFFFFFFFFFFFF AND DUP2 PUSH20 0xFFFFFFFFFFFFFFFFFFFFFFFFFFFFFFFFFFFFFFFF AND SUB PUSH3 0x173 JUMPI PUSH1 0x40 MLOAD PUSH32 0x8C379A000000000000000000000000000000000000000000000000000000000 DUP2 MSTORE PUSH1 0x4 ADD PUSH3 0x16A SWAP1 PUSH3 0x70D JUMP JUMPDEST PUSH1 0x40 MLOAD DUP1 SWAP2 SUB SWAP1 REVERT JUMPDEST PUSH1 0x1 PUSH1 0x0 DUP3 PUSH20 0xFFFFFFFFFFFFFFFFFFFFFFFFFFFFFFFFFFFFFFFF AND PUSH20 0xFFFFFFFFFFFFFFFFFFFFFFFFFFFFFFFFFFFFFFFF AND DUP2 MSTORE PUSH1 0x20 ADD SWAP1 DUP2 MSTORE PUSH1 0x20 ADD PUSH1 0x0 KECCAK256 PUSH1 0x0 SWAP1 SLOAD SWAP1 PUSH2 0x100 EXP SWAP1 DIV PUSH1 0xFF AND ISZERO PUSH3 0x203 JUMPI PUSH1 0x40 MLOAD PUSH32 0x8C379A000000000000000000000000000000000000000000000000000000000 DUP2 MSTORE PUSH1 0x4 ADD PUSH3 0x1FA SWAP1 PUSH3 0x77F JUMP JUMPDEST PUSH1 0x40 MLOAD DUP1 SWAP2 SUB SWAP1 REVERT JUMPDEST PUSH1 0x1 DUP1 PUSH1 0x0 DUP4 PUSH20 0xFFFFFFFFFFFFFFFFFFFFFFFFFFFFFFFFFFFFFFFF AND PUSH20 0xFFFFFFFFFFFFFFFFFFFFFFFFFFFFFFFFFFFFFFFF AND DUP2 MSTORE PUSH1 0x20 ADD SWAP1 DUP2 MSTORE PUSH1 0x20 ADD PUSH1 0x0 KECCAK256 PUSH1 0x0 PUSH2 0x100 EXP DUP2 SLOAD DUP2 PUSH1 0xFF MUL NOT AND SWAP1 DUP4 ISZERO ISZERO MUL OR SWAP1 SSTORE POP PUSH1 0x0 DUP2 SWAP1 DUP1 PUSH1 0x1 DUP2 SLOAD ADD DUP1 DUP3 SSTORE DUP1 SWAP2 POP POP PUSH1 0x1 SWAP1 SUB SWAP1 PUSH1 0x0 MSTORE PUSH1 0x20 PUSH1 0x0 KECCAK256 ADD PUSH1 0x0 SWAP1 SWAP2 SWAP1 SWAP2 SWAP1 SWAP2 PUSH2 0x100 EXP DUP2 SLOAD DUP2 PUSH20 0xFFFFFFFFFFFFFFFFFFFFFFFFFFFFFFFFFFFFFFFF MUL NOT AND SWAP1 DUP4 PUSH20 0xFFFFFFFFFFFFFFFFFFFFFFFFFFFFFFFFFFFFFFFF AND MUL OR SWAP1 SSTORE POP POP DUP1 DUP1 PUSH3 0x2CB SWAP1 PUSH3 0x7D0 JUMP JUMPDEST SWAP2 POP POP PUSH3 0xD5 JUMP JUMPDEST POP DUP1 PUSH1 0x2 DUP2 SWAP1 SSTORE POP POP POP PUSH3 0x81D JUMP JUMPDEST PUSH1 0x0 PUSH1 0x40 MLOAD SWAP1 POP SWAP1 JUMP JUMPDEST PUSH1 0x0 DUP1 REVERT JUMPDEST PUSH1 0x0 DUP1 REVERT JUMPDEST PUSH1 0x0 DUP1 REVERT JUMPDEST PUSH1 0x0 PUSH1 0x1F NOT PUSH1 0x1F DUP4 ADD AND SWAP1 POP SWAP2 SWAP1 POP JUMP JUMPDEST PUSH32 0x4E487B7100000000000000000000000000000000000000000000000000000000 PUSH1 0x0 MSTORE PUSH1 0x41 PUSH1 0x4 MSTORE PUSH1 0x24 PUSH1 0x0 REVERT JUMPDEST PUSH3 0x348 DUP3 PUSH3 0x2FD JUMP JUMPDEST DUP2 ADD DUP2 DUP2 LT PUSH8 0xFFFFFFFFFFFFFFFF DUP3 GT OR ISZERO PUSH3 0x36A JUMPI PUSH3 0x369 PUSH3 0x30E JUMP JUMPDEST JUMPDEST DUP1 PUSH1 0x40 MSTORE POP POP POP JUMP JUMPDEST PUSH1 0x0 PUSH3 0x37F PUSH3 0x2E4 JUMP JUMPDEST SWAP1 POP PUSH3 0x38D DUP3 DUP3 PUSH3 0x33D JUMP JUMPDEST SWAP2 SWAP1 POP JUMP JUMPDEST PUSH1 0x0 PUSH8 0xFFFFFFFFFFFFFFFF DUP3 GT ISZERO PUSH3 0x3B0 JUMPI PUSH3 0x3AF PUSH3 0x30E JUMP JUMPDEST JUMPDEST PUSH1 0x20 DUP3 MUL SWAP1 POP PUSH1 0x20 DUP2 ADD SWAP1 POP SWAP2 SWAP1 POP JUMP JUMPDEST PUSH1 0x0 DUP1 REVERT JUMPDEST PUSH1 0x0 PUSH20 0xFFFFFFFFFFFFFFFFFFFFFFFFFFFFFFFFFFFFFFFF DUP3 AND SWAP1 POP SWAP2 SWAP1 POP JUMP JUMPDEST PUSH1 0x0 PUSH3 0x3F3 DUP3 PUSH3 0x3C6 JUMP JUMPDEST SWAP1 POP SWAP2 SWAP1 POP JUMP JUMPDEST PUSH3 0x405 DUP2 PUSH3 0x3E6 JUMP JUMPDEST DUP2 EQ PUSH3 0x411 JUMPI PUSH1 0x0 DUP1 REVERT JUMPDEST POP JUMP JUMPDEST PUSH1 0x0 DUP2 MLOAD SWAP1 POP PUSH3 0x425 DUP2 PUSH3 0x3FA JUMP JUMPDEST SWAP3 SWAP2 POP POP JUMP JUMPDEST PUSH1 0x0 PUSH3 0x442 PUSH3 0x43C DUP5 PUSH3 0x392 JUMP JUMPDEST PUSH3 0x373 JUMP JUMPDEST SWAP1 POP DUP1 DUP4 DUP3 MSTORE PUSH1 0x20 DUP3 ADD SWAP1 POP PUSH1 0x20 DUP5 MUL DUP4 ADD DUP6 DUP2 GT ISZERO PUSH3 0x468 JUMPI PUSH3 0x467 PUSH3 0x3C1 JUMP JUMPDEST JUMPDEST DUP4 JUMPDEST DUP2 DUP2 LT ISZERO PUSH3 0x495 JUMPI DUP1 PUSH3 0x480 DUP9 DUP3 PUSH3 0x414 JUMP JUMPDEST DUP5 MSTORE PUSH1 0x20 DUP5 ADD SWAP4 POP POP PUSH1 0x20 DUP2 ADD SWAP1 POP PUSH3 0x46A JUMP JUMPDEST POP POP POP SWAP4 SWAP3 POP POP POP JUMP JUMPDEST PUSH1 0x0 DUP3 PUSH1 0x1F DUP4 ADD SLT PUSH3 0x4B7 JUMPI PUSH3 0x4B6 PUSH3 0x2F8 JUMP JUMPDEST JUMPDEST DUP2 MLOAD PUSH3 0x4C9 DUP5 DUP3 PUSH1 0x20 DUP7 ADD PUSH3 0x42B JUMP JUMPDEST SWAP2 POP POP SWAP3 SWAP2 POP POP JUMP JUMPDEST PUSH1 0x0 DUP2 SWAP1 POP SWAP2 SWAP1 POP JUMP JUMPDEST PUSH3 0x4E7 DUP2 PUSH3 0x4D2 JUMP JUMPDEST DUP2 EQ PUSH3 0x4F3 JUMPI PUSH1 0x0 DUP1 REVERT JUMPDEST POP JUMP JUMPDEST PUSH1 0x0 DUP2 MLOAD SWAP1 POP PUSH3 0x507 DUP2 PUSH3 0x4DC JUMP JUMPDEST SWAP3 SWAP2 POP POP JUMP JUMPDEST PUSH1 0x0 DUP1 PUSH1 0x40 DUP4 DUP6 SUB SLT ISZERO PUSH3 0x527 JUMPI PUSH3 0x526 PUSH3 0x2EE JUMP JUMPDEST JUMPDEST PUSH1 0x0 DUP4 ADD MLOAD PUSH8 0xFFFFFFFFFFFFFFFF DUP2 GT ISZERO PUSH3 0x548 JUMPI PUSH3 0x547 PUSH3 0x2F3 JUMP JUMPDEST JUMPDEST PUSH3 0x556 DUP6 DUP3 DUP7 ADD PUSH3 0x49F JUMP JUMPDEST SWAP3 POP POP PUSH1 0x20 PUSH3 0x569 DUP6 DUP3 DUP7 ADD PUSH3 0x4F6 JUMP JUMPDEST SWAP2 POP POP SWAP3 POP SWAP3 SWAP1 POP JUMP JUMPDEST PUSH1 0x0 DUP3 DUP3 MSTORE PUSH1 0x20 DUP3 ADD SWAP1 POP SWAP3 SWAP2 POP POP JUMP JUMPDEST PUSH32 0x6F776E6572732072657175697265640000000000000000000000000000000000 PUSH1 0x0 DUP3 ADD MSTORE POP JUMP JUMPDEST PUSH1 0x0 PUSH3 0x5BC PUSH1 0xF DUP4 PUSH3 0x573 JUMP JUMPDEST SWAP2 POP PUSH3 0x5C9 DUP3 PUSH3 0x584 JUMP JUMPDEST PUSH1 0x20 DUP3 ADD SWAP1 POP SWAP2 SWAP1 POP JUMP JUMPDEST PUSH1 0x0 PUSH1 0x20 DUP3 ADD SWAP1 POP DUP2 DUP2 SUB PUSH1 0x0 DUP4 ADD MSTORE PUSH3 0x5EF DUP2 PUSH3 0x5AD JUMP JUMPDEST SWAP1 POP SWAP2 SWAP1 POP JUMP JUMPDEST PUSH32 0x696E76616C6964206E756D626572206F6620726571756972656420636F6E6669 PUSH1 0x0 DUP3 ADD MSTORE PUSH32 0x726D6174696F6E73000000000000000000000000000000000000000000000000 PUSH1 0x20 DUP3 ADD MSTORE POP JUMP JUMPDEST PUSH1 0x0 PUSH3 0x654 PUSH1 0x28 DUP4 PUSH3 0x573 JUMP JUMPDEST SWAP2 POP PUSH3 0x661 DUP3 PUSH3 0x5F6 JUMP JUMPDEST PUSH1 0x40 DUP3 ADD SWAP1 POP SWAP2 SWAP1 POP JUMP JUMPDEST PUSH1 0x0 PUSH1 0x20 DUP3 ADD SWAP1 POP DUP2 DUP2 SUB PUSH1 0x0 DUP4 ADD MSTORE PUSH3 0x687 DUP2 PUSH3 0x645 JUMP JUMPDEST SWAP1 POP SWAP2 SWAP1 POP JUMP JUMPDEST PUSH32 0x4E487B7100000000000000000000000000000000000000000000000000000000 PUSH1 0x0 MSTORE PUSH1 0x32 PUSH1 0x4 MSTORE PUSH1 0x24 PUSH1 0x0 REVERT JUMPDEST PUSH32 0x696E76616C6964206F776E657200000000000000000000000000000000000000 PUSH1 0x0 DUP3 ADD MSTORE POP JUMP JUMPDEST PUSH1 0x0 PUSH3 0x6F5 PUSH1 0xD DUP4 PUSH3 0x573 JUMP JUMPDEST SWAP2 POP PUSH3 0x702 DUP3 PUSH3 0x6BD JUMP JUMPDEST PUSH1 0x20 DUP3 ADD SWAP1 POP SWAP2 SWAP1 POP JUMP JUMPDEST PUSH1 0x0 PUSH1 0x20 DUP3 ADD SWAP1 POP DUP2 DUP2 SUB PUSH1 0x0 DUP4 ADD MSTORE PUSH3 0x728 DUP2 PUSH3 0x6E6 JUMP JUMPDEST SWAP1 POP SWAP2 SWAP1 POP JUMP JUMPDEST PUSH32 0x6F776E6572206E6F7420756E6971756500000000000000000000000000000000 PUSH1 0x0 DUP3 ADD MSTORE POP JUMP JUMPDEST PUSH1 0x0 PUSH3 0x767 PUSH1 0x10 DUP4 PUSH3 0x573 JUMP JUMPDEST SWAP2 POP PUSH3 0x774 DUP3 PUSH3 0x72F JUMP JUMPDEST PUSH1 0x20 DUP3 ADD SWAP1 POP SWAP2 SWAP1 POP JUMP JUMPDEST PUSH1 0x0 PUSH1 0x20 DUP3 ADD SWAP1 POP DUP2 DUP2 SUB PUSH1 0x0 DUP4 ADD MSTORE PUSH3 0x79A DUP2 PUSH3 0x758 JUMP JUMPDEST SWAP1 POP SWAP2 SWAP1 POP JUMP JUMPDEST PUSH32 0x4E487B7100000000000000000000000000000000000000000000000000000000 PUSH1 0x0 MSTORE PUSH1 0x11 PUSH1 0x4 MSTORE PUSH1 0x24 PUSH1 0x0 REVERT JUMPDEST PUSH1 0x0 PUSH3 0x7DD DUP3 PUSH3 0x4D2 JUMP JUMPDEST SWAP2 POP PUSH32 0xFFFFFFFFFFFFFFFFFFFFFFFFFFFFFFFFFFFFFFFFFFFFFFFFFFFFFFFFFFFFFFFF DUP3 SUB PUSH3 0x812 JUMPI PUSH3 0x811 PUSH3 0x7A1 JUMP JUMPDEST JUMPDEST PUSH1 0x1 DUP3 ADD SWAP1 POP SWAP2 SWAP1 POP JUMP JUMPDEST PUSH2 0x190C DUP1 PUSH3 0x82D PUSH1 0x0 CODECOPY PUSH1 0x0 RETURN INVALID PUSH1 0x80 PUSH1 0x40 MSTORE PUSH1 0x4 CALLDATASIZE LT PUSH2 0x8A JUMPI PUSH1 0x0 CALLDATALOAD PUSH1 0xE0 SHR DUP1 PUSH4 0x9ACE38C2 GT PUSH2 0x59 JUMPI DUP1 PUSH4 0x9ACE38C2 EQ PUSH2 0x1C4 JUMPI DUP1 PUSH4 0xB1E130FC EQ PUSH2 0x205 JUMPI DUP1 PUSH4 0xC6427474 EQ PUSH2 0x22E JUMPI DUP1 PUSH4 0xEA1D59C9 EQ PUSH2 0x257 JUMPI DUP1 PUSH4 0xEE22610B EQ PUSH2 0x282 JUMPI PUSH2 0xDF JUMP JUMPDEST DUP1 PUSH4 0x25E7C27 EQ PUSH2 0xE4 JUMPI DUP1 PUSH4 0x242232D1 EQ PUSH2 0x121 JUMPI DUP1 PUSH4 0x2F54BF6E EQ PUSH2 0x14A JUMPI DUP1 PUSH4 0x56C31637 EQ PUSH2 0x187 JUMPI PUSH2 0xDF JUMP JUMPDEST CALLDATASIZE PUSH2 0xDF JUMPI CALLER PUSH20 0xFFFFFFFFFFFFFFFFFFFFFFFFFFFFFFFFFFFFFFFF AND PUSH32 0xE1FFFCC4923D04B559F4D29A8BFC6CDA04EB5B0D3C460751C2402C5C5CC9109C CALLVALUE PUSH1 0x40 MLOAD PUSH2 0xD5 SWAP2 SWAP1 PUSH2 0xFC5 JUMP JUMPDEST PUSH1 0x40 MLOAD DUP1 SWAP2 SUB SWAP1 LOG2 STOP JUMPDEST PUSH1 0x0 DUP1 REVERT JUMPDEST CALLVALUE DUP1 ISZERO PUSH2 0xF0 JUMPI PUSH1 0x0 DUP1 REVERT JUMPDEST POP PUSH2 0x10B PUSH1 0x4 DUP1 CALLDATASIZE SUB DUP2 ADD SWAP1 PUSH2 0x106 SWAP2 SWAP1 PUSH2 0x1020 JUMP JUMPDEST PUSH2 0x2AB JUMP JUMPDEST PUSH1 0x40 MLOAD PUSH2 0x118 SWAP2 SWAP1 PUSH2 0x108E JUMP JUMPDEST PUSH1 0x40 MLOAD DUP1 SWAP2 SUB SWAP1 RETURN JUMPDEST CALLVALUE DUP1 ISZERO PUSH2 0x12D JUMPI PUSH1 0x0 DUP1 REVERT JUMPDEST POP PUSH2 0x148 PUSH1 0x4 DUP1 CALLDATASIZE SUB DUP2 ADD SWAP1 PUSH2 0x143 SWAP2 SWAP1 PUSH2 0x1020 JUMP JUMPDEST PUSH2 0x2EA JUMP JUMPDEST STOP JUMPDEST CALLVALUE DUP1 ISZERO PUSH2 0x156 JUMPI PUSH1 0x0 DUP1 REVERT JUMPDEST POP PUSH2 0x171 PUSH1 0x4 DUP1 CALLDATASIZE SUB DUP2 ADD SWAP1 PUSH2 0x16C SWAP2 SWAP1 PUSH2 0x10D5 JUMP JUMPDEST PUSH2 0x5C7 JUMP JUMPDEST PUSH1 0x40 MLOAD PUSH2 0x17E SWAP2 SWAP1 PUSH2 0x111D JUMP JUMPDEST PUSH1 0x40 MLOAD DUP1 SWAP2 SUB SWAP1 RETURN JUMPDEST CALLVALUE DUP1 ISZERO PUSH2 0x193 JUMPI PUSH1 0x0 DUP1 REVERT JUMPDEST POP PUSH2 0x1AE PUSH1 0x4 DUP1 CALLDATASIZE SUB DUP2 ADD SWAP1 PUSH2 0x1A9 SWAP2 SWAP1 PUSH2 0x1138 JUMP JUMPDEST PUSH2 0x5E7 JUMP JUMPDEST PUSH1 0x40 MLOAD PUSH2 0x1BB SWAP2 SWAP1 PUSH2 0x111D JUMP JUMPDEST PUSH1 0x40 MLOAD DUP1 SWAP2 SUB SWAP1 RETURN JUMPDEST CALLVALUE DUP1 ISZERO PUSH2 0x1D0 JUMPI PUSH1 0x0 DUP1 REVERT JUMPDEST POP PUSH2 0x1EB PUSH1 0x4 DUP1 CALLDATASIZE SUB DUP2 ADD SWAP1 PUSH2 0x1E6 SWAP2 SWAP1 PUSH2 0x1020 JUMP JUMPDEST PUSH2 0x616 JUMP JUMPDEST PUSH1 0x40 MLOAD PUSH2 0x1FC SWAP6 SWAP5 SWAP4 SWAP3 SWAP2 SWAP1 PUSH2 0x1211 JUMP JUMPDEST PUSH1 0x40 MLOAD DUP1 SWAP2 SUB SWAP1 RETURN JUMPDEST CALLVALUE DUP1 ISZERO PUSH2 0x211 JUMPI PUSH1 0x0 DUP1 REVERT JUMPDEST POP PUSH2 0x22C PUSH1 0x4 DUP1 CALLDATASIZE SUB DUP2 ADD SWAP1 PUSH2 0x227 SWAP2 SWAP1 PUSH2 0x1020 JUMP JUMPDEST PUSH2 0x711 JUMP JUMPDEST STOP JUMPDEST CALLVALUE DUP1 ISZERO PUSH2 0x23A JUMPI PUSH1 0x0 DUP1 REVERT JUMPDEST POP PUSH2 0x255 PUSH1 0x4 DUP1 CALLDATASIZE SUB DUP2 ADD SWAP1 PUSH2 0x250 SWAP2 SWAP1 PUSH2 0x13A0 JUMP JUMPDEST PUSH2 0x9EB JUMP JUMPDEST STOP JUMPDEST CALLVALUE DUP1 ISZERO PUSH2 0x263 JUMPI PUSH1 0x0 DUP1 REVERT JUMPDEST POP PUSH2 0x26C PUSH2 0xBF5 JUMP JUMPDEST PUSH1 0x40 MLOAD PUSH2 0x279 SWAP2 SWAP1 PUSH2 0xFC5 JUMP JUMPDEST PUSH1 0x40 MLOAD DUP1 SWAP2 SUB SWAP1 RETURN JUMPDEST CALLVALUE DUP1 ISZERO PUSH2 0x28E JUMPI PUSH1 0x0 DUP1 REVERT JUMPDEST POP PUSH2 0x2A9 PUSH1 0x4 DUP1 CALLDATASIZE SUB DUP2 ADD SWAP1 PUSH2 0x2A4 SWAP2 SWAP1 PUSH2 0x1020 JUMP JUMPDEST PUSH2 0xBFB JUMP JUMPDEST STOP JUMPDEST PUSH1 0x0 DUP2 DUP2 SLOAD DUP2 LT PUSH2 0x2BB JUMPI PUSH1 0x0 DUP1 REVERT JUMPDEST SWAP1 PUSH1 0x0 MSTORE PUSH1 0x20 PUSH1 0x0 KECCAK256 ADD PUSH1 0x0 SWAP2 POP SLOAD SWAP1 PUSH2 0x100 EXP SWAP1 DIV PUSH20 0xFFFFFFFFFFFFFFFFFFFFFFFFFFFFFFFFFFFFFFFF AND DUP2 JUMP JUMPDEST PUSH1 0x1 PUSH1 0x0 CALLER PUSH20 0xFFFFFFFFFFFFFFFFFFFFFFFFFFFFFFFFFFFFFFFF AND PUSH20 0xFFFFFFFFFFFFFFFFFFFFFFFFFFFFFFFFFFFFFFFF AND DUP2 MSTORE PUSH1 0x20 ADD SWAP1 DUP2 MSTORE PUSH1 0x20 ADD PUSH1 0x0 KECCAK256 PUSH1 0x0 SWAP1 SLOAD SWAP1 PUSH2 0x100 EXP SWAP1 DIV PUSH1 0xFF AND PUSH2 0x376 JUMPI PUSH1 0x40 MLOAD PUSH32 0x8C379A000000000000000000000000000000000000000000000000000000000 DUP2 MSTORE PUSH1 0x4 ADD PUSH2 0x36D SWAP1 PUSH2 0x146C JUMP JUMPDEST PUSH1 0x40 MLOAD DUP1 SWAP2 SUB SWAP1 REVERT JUMPDEST DUP1 PUSH1 0x4 DUP1 SLOAD SWAP1 POP DUP2 LT PUSH2 0x3BE JUMPI PUSH1 0x40 MLOAD PUSH32 0x8C379A000000000000000000000000000000000000000000000000000000000 DUP2 MSTORE PUSH1 0x4 ADD PUSH2 0x3B5 SWAP1 PUSH2 0x14D8 JUMP JUMPDEST PUSH1 0x40 MLOAD DUP1 SWAP2 SUB SWAP1 REVERT JUMPDEST DUP2 PUSH1 0x4 DUP2 DUP2 SLOAD DUP2 LT PUSH2 0x3D3 JUMPI PUSH2 0x3D2 PUSH2 0x14F8 JUMP JUMPDEST JUMPDEST SWAP1 PUSH1 0x0 MSTORE PUSH1 0x20 PUSH1 0x0 KECCAK256 SWAP1 PUSH1 0x5 MUL ADD PUSH1 0x3 ADD PUSH1 0x0 SWAP1 SLOAD SWAP1 PUSH2 0x100 EXP SWAP1 DIV PUSH1 0xFF AND ISZERO PUSH2 0x432 JUMPI PUSH1 0x40 MLOAD PUSH32 0x8C379A000000000000000000000000000000000000000000000000000000000 DUP2 MSTORE PUSH1 0x4 ADD PUSH2 0x429 SWAP1 PUSH2 0x1573 JUMP JUMPDEST PUSH1 0x40 MLOAD DUP1 SWAP2 SUB SWAP1 REVERT JUMPDEST DUP3 PUSH1 0x3 PUSH1 0x0 DUP3 DUP2 MSTORE PUSH1 0x20 ADD SWAP1 DUP2 MSTORE PUSH1 0x20 ADD PUSH1 0x0 KECCAK256 PUSH1 0x0 CALLER PUSH20 0xFFFFFFFFFFFFFFFFFFFFFFFFFFFFFFFFFFFFFFFF AND PUSH20 0xFFFFFFFFFFFFFFFFFFFFFFFFFFFFFFFFFFFFFFFF AND DUP2 MSTORE PUSH1 0x20 ADD SWAP1 DUP2 MSTORE PUSH1 0x20 ADD PUSH1 0x0 KECCAK256 PUSH1 0x0 SWAP1 SLOAD SWAP1 PUSH2 0x100 EXP SWAP1 DIV PUSH1 0xFF AND ISZERO PUSH2 0x4D1 JUMPI PUSH1 0x40 MLOAD PUSH32 0x8C379A000000000000000000000000000000000000000000000000000000000 DUP2 MSTORE PUSH1 0x4 ADD PUSH2 0x4C8 SWAP1 PUSH2 0x15DF JUMP JUMPDEST PUSH1 0x40 MLOAD DUP1 SWAP2 SUB SWAP1 REVERT JUMPDEST PUSH1 0x0 PUSH1 0x4 DUP6 DUP2 SLOAD DUP2 LT PUSH2 0x4E7 JUMPI PUSH2 0x4E6 PUSH2 0x14F8 JUMP JUMPDEST JUMPDEST SWAP1 PUSH1 0x0 MSTORE PUSH1 0x20 PUSH1 0x0 KECCAK256 SWAP1 PUSH1 0x5 MUL ADD SWAP1 POP PUSH1 0x1 DUP2 PUSH1 0x4 ADD PUSH1 0x0 DUP3 DUP3 SLOAD PUSH2 0x50C SWAP2 SWAP1 PUSH2 0x162E JUMP JUMPDEST SWAP3 POP POP DUP2 SWAP1 SSTORE POP PUSH1 0x1 PUSH1 0x3 PUSH1 0x0 DUP8 DUP2 MSTORE PUSH1 0x20 ADD SWAP1 DUP2 MSTORE PUSH1 0x20 ADD PUSH1 0x0 KECCAK256 PUSH1 0x0 CALLER PUSH20 0xFFFFFFFFFFFFFFFFFFFFFFFFFFFFFFFFFFFFFFFF AND PUSH20 0xFFFFFFFFFFFFFFFFFFFFFFFFFFFFFFFFFFFFFFFF AND DUP2 MSTORE PUSH1 0x20 ADD SWAP1 DUP2 MSTORE PUSH1 0x20 ADD PUSH1 0x0 KECCAK256 PUSH1 0x0 PUSH2 0x100 EXP DUP2 SLOAD DUP2 PUSH1 0xFF MUL NOT AND SWAP1 DUP4 ISZERO ISZERO MUL OR SWAP1 SSTORE POP DUP5 CALLER PUSH20 0xFFFFFFFFFFFFFFFFFFFFFFFFFFFFFFFFFFFFFFFF AND PUSH32 0xFA624AADD8A0EAE4EE975EAE5CF13C9803B361B7FA2D832427DB6207C0882193 PUSH1 0x40 MLOAD PUSH1 0x40 MLOAD DUP1 SWAP2 SUB SWAP1 LOG3 POP POP POP POP POP JUMP JUMPDEST PUSH1 0x1 PUSH1 0x20 MSTORE DUP1 PUSH1 0x0 MSTORE PUSH1 0x40 PUSH1 0x0 KECCAK256 PUSH1 0x0 SWAP2 POP SLOAD SWAP1 PUSH2 0x100 EXP SWAP1 DIV PUSH1 0xFF AND DUP2 JUMP JUMPDEST PUSH1 0x3 PUSH1 0x20 MSTORE DUP2 PUSH1 0x0 MSTORE PUSH1 0x40 PUSH1 0x0 KECCAK256 PUSH1 0x20 MSTORE DUP1 PUSH1 0x0 MSTORE PUSH1 0x40 PUSH1 0x0 KECCAK256 PUSH1 0x0 SWAP2 POP SWAP2 POP SWAP1 SLOAD SWAP1 PUSH2 0x100 EXP SWAP1 DIV PUSH1 0xFF AND DUP2 JUMP JUMPDEST PUSH1 0x4 DUP2 DUP2 SLOAD DUP2 LT PUSH2 0x626 JUMPI PUSH1 0x0 DUP1 REVERT JUMPDEST SWAP1 PUSH1 0x0 MSTORE PUSH1 0x20 PUSH1 0x0 KECCAK256 SWAP1 PUSH1 0x5 MUL ADD PUSH1 0x0 SWAP2 POP SWAP1 POP DUP1 PUSH1 0x0 ADD PUSH1 0x0 SWAP1 SLOAD SWAP1 PUSH2 0x100 EXP SWAP1 DIV PUSH20 0xFFFFFFFFFFFFFFFFFFFFFFFFFFFFFFFFFFFFFFFF AND SWAP1 DUP1 PUSH1 0x1 ADD SLOAD SWAP1 DUP1 PUSH1 0x2 ADD DUP1 SLOAD PUSH2 0x675 SWAP1 PUSH2 0x16B3 JUMP JUMPDEST DUP1 PUSH1 0x1F ADD PUSH1 0x20 DUP1 SWAP2 DIV MUL PUSH1 0x20 ADD PUSH1 0x40 MLOAD SWAP1 DUP2 ADD PUSH1 0x40 MSTORE DUP1 SWAP3 SWAP2 SWAP1 DUP2 DUP2 MSTORE PUSH1 0x20 ADD DUP3 DUP1 SLOAD PUSH2 0x6A1 SWAP1 PUSH2 0x16B3 JUMP JUMPDEST DUP1 ISZERO PUSH2 0x6EE JUMPI DUP1 PUSH1 0x1F LT PUSH2 0x6C3 JUMPI PUSH2 0x100 DUP1 DUP4 SLOAD DIV MUL DUP4 MSTORE SWAP2 PUSH1 0x20 ADD SWAP2 PUSH2 0x6EE JUMP JUMPDEST DUP3 ADD SWAP2 SWAP1 PUSH1 0x0 MSTORE PUSH1 0x20 PUSH1 0x0 KECCAK256 SWAP1 JUMPDEST DUP2 SLOAD DUP2 MSTORE SWAP1 PUSH1 0x1 ADD SWAP1 PUSH1 0x20 ADD DUP1 DUP4 GT PUSH2 0x6D1 JUMPI DUP3 SWAP1 SUB PUSH1 0x1F AND DUP3 ADD SWAP2 JUMPDEST POP POP POP POP POP SWAP1 DUP1 PUSH1 0x3 ADD PUSH1 0x0 SWAP1 SLOAD SWAP1 PUSH2 0x100 EXP SWAP1 DIV PUSH1 0xFF AND SWAP1 DUP1 PUSH1 0x4 ADD SLOAD SWAP1 POP DUP6 JUMP JUMPDEST PUSH1 0x1 PUSH1 0x0 CALLER PUSH20 0xFFFFFFFFFFFFFFFFFFFFFFFFFFFFFFFFFFFFFFFF AND PUSH20 0xFFFFFFFFFFFFFFFFFFFFFFFFFFFFFFFFFFFFFFFF AND DUP2 MSTORE PUSH1 0x20 ADD SWAP1 DUP2 MSTORE PUSH1 0x20 ADD PUSH1 0x0 KECCAK256 PUSH1 0x0 SWAP1 SLOAD SWAP1 PUSH2 0x100 EXP SWAP1 DIV PUSH1 0xFF AND PUSH2 0x79D JUMPI PUSH1 0x40 MLOAD PUSH32 0x8C379A000000000000000000000000000000000000000000000000000000000 DUP2 MSTORE PUSH1 0x4 ADD PUSH2 0x794 SWAP1 PUSH2 0x146C JUMP JUMPDEST PUSH1 0x40 MLOAD DUP1 SWAP2 SUB SWAP1 REVERT JUMPDEST DUP1 PUSH1 0x4 DUP1 SLOAD SWAP1 POP DUP2 LT PUSH2 0x7E5 JUMPI PUSH1 0x40 MLOAD PUSH32 0x8C379A000000000000000000000000000000000000000000000000000000000 DUP2 MSTORE PUSH1 0x4 ADD PUSH2 0x7DC SWAP1 PUSH2 0x14D8 JUMP JUMPDEST PUSH1 0x40 MLOAD DUP1 SWAP2 SUB SWAP1 REVERT JUMPDEST DUP2 PUSH1 0x4 DUP2 DUP2 SLOAD DUP2 LT PUSH2 0x7FA JUMPI PUSH2 0x7F9 PUSH2 0x14F8 JUMP JUMPDEST JUMPDEST SWAP1 PUSH1 0x0 MSTORE PUSH1 0x20 PUSH1 0x0 KECCAK256 SWAP1 PUSH1 0x5 MUL ADD PUSH1 0x3 ADD PUSH1 0x0 SWAP1 SLOAD SWAP1 PUSH2 0x100 EXP SWAP1 DIV PUSH1 0xFF AND ISZERO PUSH2 0x859 JUMPI PUSH1 0x40 MLOAD PUSH32 0x8C379A000000000000000000000000000000000000000000000000000000000 DUP2 MSTORE PUSH1 0x4 ADD PUSH2 0x850 SWAP1 PUSH2 0x1573 JUMP JUMPDEST PUSH1 0x40 MLOAD DUP1 SWAP2 SUB SWAP1 REVERT JUMPDEST PUSH1 0x0 PUSH1 0x4 DUP5 DUP2 SLOAD DUP2 LT PUSH2 0x86F JUMPI PUSH2 0x86E PUSH2 0x14F8 JUMP JUMPDEST JUMPDEST SWAP1 PUSH1 0x0 MSTORE PUSH1 0x20 PUSH1 0x0 KECCAK256 SWAP1 PUSH1 0x5 MUL ADD SWAP1 POP PUSH1 0x3 PUSH1 0x0 DUP6 DUP2 MSTORE PUSH1 0x20 ADD SWAP1 DUP2 MSTORE PUSH1 0x20 ADD PUSH1 0x0 KECCAK256 PUSH1 0x0 CALLER PUSH20 0xFFFFFFFFFFFFFFFFFFFFFFFFFFFFFFFFFFFFFFFF AND PUSH20 0xFFFFFFFFFFFFFFFFFFFFFFFFFFFFFFFFFFFFFFFF AND DUP2 MSTORE PUSH1 0x20 ADD SWAP1 DUP2 MSTORE PUSH1 0x20 ADD PUSH1 0x0 KECCAK256 PUSH1 0x0 SWAP1 SLOAD SWAP1 PUSH2 0x100 EXP SWAP1 DIV PUSH1 0xFF AND PUSH2 0x91C JUMPI PUSH1 0x40 MLOAD PUSH32 0x8C379A000000000000000000000000000000000000000000000000000000000 DUP2 MSTORE PUSH1 0x4 ADD PUSH2 0x913 SWAP1 PUSH2 0x1730 JUMP JUMPDEST PUSH1 0x40 MLOAD DUP1 SWAP2 SUB SWAP1 REVERT JUMPDEST PUSH1 0x1 DUP2 PUSH1 0x4 ADD PUSH1 0x0 DUP3 DUP3 SLOAD PUSH2 0x931 SWAP2 SWAP1 PUSH2 0x1750 JUMP JUMPDEST SWAP3 POP POP DUP2 SWAP1 SSTORE POP PUSH1 0x0 PUSH1 0x3 PUSH1 0x0 DUP7 DUP2 MSTORE PUSH1 0x20 ADD SWAP1 DUP2 MSTORE PUSH1 0x20 ADD PUSH1 0x0 KECCAK256 PUSH1 0x0 CALLER PUSH20 0xFFFFFFFFFFFFFFFFFFFFFFFFFFFFFFFFFFFFFFFF AND PUSH20 0xFFFFFFFFFFFFFFFFFFFFFFFFFFFFFFFFFFFFFFFF AND DUP2 MSTORE PUSH1 0x20 ADD SWAP1 DUP2 MSTORE PUSH1 0x20 ADD PUSH1 0x0 KECCAK256 PUSH1 0x0 PUSH2 0x100 EXP DUP2 SLOAD DUP2 PUSH1 0xFF MUL NOT AND SWAP1 DUP4 ISZERO ISZERO MUL OR SWAP1 SSTORE POP DUP4 CALLER PUSH20 0xFFFFFFFFFFFFFFFFFFFFFFFFFFFFFFFFFFFFFFFF AND PUSH32 0x1E75C0948730226138E58D1E7446B6167B5159A6904C3AC4597714F298D13DF2 PUSH1 0x40 MLOAD PUSH1 0x40 MLOAD DUP1 SWAP2 SUB SWAP1 LOG3 POP POP POP POP JUMP JUMPDEST PUSH1 0x1 PUSH1 0x0 CALLER PUSH20 0xFFFFFFFFFFFFFFFFFFFFFFFFFFFFFFFFFFFFFFFF AND PUSH20 0xFFFFFFFFFFFFFFFFFFFFFFFFFFFFFFFFFFFFFFFF AND DUP2 MSTORE PUSH1 0x20 ADD SWAP1 DUP2 MSTORE PUSH1 0x20 ADD PUSH1 0x0 KECCAK256 PUSH1 0x0 SWAP1 SLOAD SWAP1 PUSH2 0x100 EXP SWAP1 DIV PUSH1 0xFF AND PUSH2 0xA77 JUMPI PUSH1 0x40 MLOAD PUSH32 0x8C379A000000000000000000000000000000000000000000000000000000000 DUP2 MSTORE PUSH1 0x4 ADD PUSH2 0xA6E SWAP1 PUSH2 0x146C JUMP JUMPDEST PUSH1 0x40 MLOAD DUP1 SWAP2 SUB SWAP1 REVERT JUMPDEST PUSH1 0x0 PUSH1 0x4 DUP1 SLOAD SWAP1 POP SWAP1 POP PUSH1 0x4 PUSH1 0x40 MLOAD DUP1 PUSH1 0xA0 ADD PUSH1 0x40 MSTORE DUP1 DUP7 PUSH20 0xFFFFFFFFFFFFFFFFFFFFFFFFFFFFFFFFFFFFFFFF AND DUP2 MSTORE PUSH1 0x20 ADD DUP6 DUP2 MSTORE PUSH1 0x20 ADD DUP5 DUP2 MSTORE PUSH1 0x20 ADD PUSH1 0x0 ISZERO ISZERO DUP2 MSTORE PUSH1 0x20 ADD PUSH1 0x0 DUP2 MSTORE POP SWAP1 DUP1 PUSH1 0x1 DUP2 SLOAD ADD DUP1 DUP3 SSTORE DUP1 SWAP2 POP POP PUSH1 0x1 SWAP1 SUB SWAP1 PUSH1 0x0 MSTORE PUSH1 0x20 PUSH1 0x0 KECCAK256 SWAP1 PUSH1 0x5 MUL ADD PUSH1 0x0 SWAP1 SWAP2 SWAP1 SWAP2 SWAP1 SWAP2 POP PUSH1 0x0 DUP3 ADD MLOAD DUP2 PUSH1 0x0 ADD PUSH1 0x0 PUSH2 0x100 EXP DUP2 SLOAD DUP2 PUSH20 0xFFFFFFFFFFFFFFFFFFFFFFFFFFFFFFFFFFFFFFFF MUL NOT AND SWAP1 DUP4 PUSH20 0xFFFFFFFFFFFFFFFFFFFFFFFFFFFFFFFFFFFFFFFF AND MUL OR SWAP1 SSTORE POP PUSH1 0x20 DUP3 ADD MLOAD DUP2 PUSH1 0x1 ADD SSTORE PUSH1 0x40 DUP3 ADD MLOAD DUP2 PUSH1 0x2 ADD SWAP1 DUP1 MLOAD SWAP1 PUSH1 0x20 ADD SWAP1 PUSH2 0xB5A SWAP3 SWAP2 SWAP1 PUSH2 0xF09 JUMP JUMPDEST POP PUSH1 0x60 DUP3 ADD MLOAD DUP2 PUSH1 0x3 ADD PUSH1 0x0 PUSH2 0x100 EXP DUP2 SLOAD DUP2 PUSH1 0xFF MUL NOT AND SWAP1 DUP4 ISZERO ISZERO MUL OR SWAP1 SSTORE POP PUSH1 0x80 DUP3 ADD MLOAD DUP2 PUSH1 0x4 ADD SSTORE POP POP DUP4 PUSH20 0xFFFFFFFFFFFFFFFFFFFFFFFFFFFFFFFFFFFFFFFF AND DUP2 CALLER PUSH20 0xFFFFFFFFFFFFFFFFFFFFFFFFFFFFFFFFFFFFFFFF AND PUSH32 0xD5A05BF70715AD82A09A756320284A1B54C9FF74CD0F8CCE6219E79B563FE59D DUP7 DUP7 PUSH1 0x40 MLOAD PUSH2 0xBE7 SWAP3 SWAP2 SWAP1 PUSH2 0x1784 JUMP JUMPDEST PUSH1 0x40 MLOAD DUP1 SWAP2 SUB SWAP1 LOG4 POP POP POP POP JUMP JUMPDEST PUSH1 0x2 SLOAD DUP2 JUMP JUMPDEST PUSH1 0x1 PUSH1 0x0 CALLER PUSH20 0xFFFFFFFFFFFFFFFFFFFFFFFFFFFFFFFFFFFFFFFF AND PUSH20 0xFFFFFFFFFFFFFFFFFFFFFFFFFFFFFFFFFFFFFFFF AND DUP2 MSTORE PUSH1 0x20 ADD SWAP1 DUP2 MSTORE PUSH1 0x20 ADD PUSH1 0x0 KECCAK256 PUSH1 0x0 SWAP1 SLOAD SWAP1 PUSH2 0x100 EXP SWAP1 DIV PUSH1 0xFF AND PUSH2 0xC87 JUMPI PUSH1 0x40 MLOAD PUSH32 0x8C379A000000000000000000000000000000000000000000000000000000000 DUP2 MSTORE PUSH1 0x4 ADD PUSH2 0xC7E SWAP1 PUSH2 0x146C JUMP JUMPDEST PUSH1 0x40 MLOAD DUP1 SWAP2 SUB SWAP1 REVERT JUMPDEST DUP1 PUSH1 0x4 DUP1 SLOAD SWAP1 POP DUP2 LT PUSH2 0xCCF JUMPI PUSH1 0x40 MLOAD PUSH32 0x8C379A000000000000000000000000000000000000000000000000000000000 DUP2 MSTORE PUSH1 0x4 ADD PUSH2 0xCC6 SWAP1 PUSH2 0x14D8 JUMP JUMPDEST PUSH1 0x40 MLOAD DUP1 SWAP2 SUB SWAP1 REVERT JUMPDEST DUP2 PUSH1 0x4 DUP2 DUP2 SLOAD DUP2 LT PUSH2 0xCE4 JUMPI PUSH2 0xCE3 PUSH2 0x14F8 JUMP JUMPDEST JUMPDEST SWAP1 PUSH1 0x0 MSTORE PUSH1 0x20 PUSH1 0x0 KECCAK256 SWAP1 PUSH1 0x5 MUL ADD PUSH1 0x3 ADD PUSH1 0x0 SWAP1 SLOAD SWAP1 PUSH2 0x100 EXP SWAP1 DIV PUSH1 0xFF AND ISZERO PUSH2 0xD43 JUMPI PUSH1 0x40 MLOAD PUSH32 0x8C379A000000000000000000000000000000000000000000000000000000000 DUP2 MSTORE PUSH1 0x4 ADD PUSH2 0xD3A SWAP1 PUSH2 0x1573 JUMP JUMPDEST PUSH1 0x40 MLOAD DUP1 SWAP2 SUB SWAP1 REVERT JUMPDEST PUSH1 0x0 PUSH1 0x4 DUP5 DUP2 SLOAD DUP2 LT PUSH2 0xD59 JUMPI PUSH2 0xD58 PUSH2 0x14F8 JUMP JUMPDEST JUMPDEST SWAP1 PUSH1 0x0 MSTORE PUSH1 0x20 PUSH1 0x0 KECCAK256 SWAP1 PUSH1 0x5 MUL ADD SWAP1 POP PUSH1 0x2 SLOAD DUP2 PUSH1 0x4 ADD SLOAD LT ISZERO PUSH2 0xDB2 JUMPI PUSH1 0x40 MLOAD PUSH32 0x8C379A000000000000000000000000000000000000000000000000000000000 DUP2 MSTORE PUSH1 0x4 ADD PUSH2 0xDA9 SWAP1 PUSH2 0x1800 JUMP JUMPDEST PUSH1 0x40 MLOAD DUP1 SWAP2 SUB SWAP1 REVERT JUMPDEST PUSH1 0x1 DUP2 PUSH1 0x3 ADD PUSH1 0x0 PUSH2 0x100 EXP DUP2 SLOAD DUP2 PUSH1 0xFF MUL NOT AND SWAP1 DUP4 ISZERO ISZERO MUL OR SWAP1 SSTORE POP PUSH1 0x0 DUP2 PUSH1 0x0 ADD PUSH1 0x0 SWAP1 SLOAD SWAP1 PUSH2 0x100 EXP SWAP1 DIV PUSH20 0xFFFFFFFFFFFFFFFFFFFFFFFFFFFFFFFFFFFFFFFF AND PUSH20 0xFFFFFFFFFFFFFFFFFFFFFFFFFFFFFFFFFFFFFFFF AND DUP3 PUSH1 0x1 ADD SLOAD DUP4 PUSH1 0x2 ADD PUSH1 0x40 MLOAD PUSH2 0xE22 SWAP2 SWAP1 PUSH2 0x18BF JUMP JUMPDEST PUSH1 0x0 PUSH1 0x40 MLOAD DUP1 DUP4 SUB DUP2 DUP6 DUP8 GAS CALL SWAP3 POP POP POP RETURNDATASIZE DUP1 PUSH1 0x0 DUP2 EQ PUSH2 0xE5F JUMPI PUSH1 0x40 MLOAD SWAP2 POP PUSH1 0x1F NOT PUSH1 0x3F RETURNDATASIZE ADD AND DUP3 ADD PUSH1 0x40 MSTORE RETURNDATASIZE DUP3 MSTORE RETURNDATASIZE PUSH1 0x0 PUSH1 0x20 DUP5 ADD RETURNDATACOPY PUSH2 0xE64 JUMP JUMPDEST PUSH1 0x60 SWAP2 POP JUMPDEST POP POP SWAP1 POP PUSH1 0x1 ISZERO ISZERO DUP2 ISZERO ISZERO SUB PUSH2 0xEBD JUMPI DUP5 CALLER PUSH20 0xFFFFFFFFFFFFFFFFFFFFFFFFFFFFFFFFFFFFFFFF AND PUSH32 0x5445F318F4F5FCFB66592E68E0CC5822AA15664039BD5F0FFDE24C5A8142B1AC PUSH1 0x40 MLOAD PUSH1 0x40 MLOAD DUP1 SWAP2 SUB SWAP1 LOG3 PUSH2 0xF02 JUMP JUMPDEST DUP5 CALLER PUSH20 0xFFFFFFFFFFFFFFFFFFFFFFFFFFFFFFFFFFFFFFFF AND PUSH32 0xA2BD93BE155D3BC3E3F43D3B4AC0E02CBEB3FE35CA79384A7A18FF308D5A59C8 PUSH1 0x40 MLOAD PUSH1 0x40 MLOAD DUP1 SWAP2 SUB SWAP1 LOG3 JUMPDEST POP POP POP POP POP JUMP JUMPDEST DUP3 DUP1 SLOAD PUSH2 0xF15 SWAP1 PUSH2 0x16B3 JUMP JUMPDEST SWAP1 PUSH1 0x0 MSTORE PUSH1 0x20 PUSH1 0x0 KECCAK256 SWAP1 PUSH1 0x1F ADD PUSH1 0x20 SWAP1 DIV DUP2 ADD SWAP3 DUP3 PUSH2 0xF37 JUMPI PUSH1 0x0 DUP6 SSTORE PUSH2 0xF7E JUMP JUMPDEST DUP3 PUSH1 0x1F LT PUSH2 0xF50 JUMPI DUP1 MLOAD PUSH1 0xFF NOT AND DUP4 DUP1 ADD OR DUP6 SSTORE PUSH2 0xF7E JUMP JUMPDEST DUP3 DUP1 ADD PUSH1 0x1 ADD DUP6 SSTORE DUP3 ISZERO PUSH2 0xF7E JUMPI SWAP2 DUP3 ADD JUMPDEST DUP3 DUP2 GT ISZERO PUSH2 0xF7D JUMPI DUP3 MLOAD DUP3 SSTORE SWAP2 PUSH1 0x20 ADD SWAP2 SWAP1 PUSH1 0x1 ADD SWAP1 PUSH2 0xF62 JUMP JUMPDEST JUMPDEST POP SWAP1 POP PUSH2 0xF8B SWAP2 SWAP1 PUSH2 0xF8F JUMP JUMPDEST POP SWAP1 JUMP JUMPDEST JUMPDEST DUP1 DUP3 GT ISZERO PUSH2 0xFA8 JUMPI PUSH1 0x0 DUP2 PUSH1 0x0 SWAP1 SSTORE POP PUSH1 0x1 ADD PUSH2 0xF90 JUMP JUMPDEST POP SWAP1 JUMP JUMPDEST PUSH1 0x0 DUP2 SWAP1 POP SWAP2 SWAP1 POP JUMP JUMPDEST PUSH2 0xFBF DUP2 PUSH2 0xFAC JUMP JUMPDEST DUP3 MSTORE POP POP JUMP JUMPDEST PUSH1 0x0 PUSH1 0x20 DUP3 ADD SWAP1 POP PUSH2 0xFDA PUSH1 0x0 DUP4 ADD DUP5 PUSH2 0xFB6 JUMP JUMPDEST SWAP3 SWAP2 POP POP JUMP JUMPDEST PUSH1 0x0 PUSH1 0x40 MLOAD SWAP1 POP SWAP1 JUMP JUMPDEST PUSH1 0x0 DUP1 REVERT JUMPDEST PUSH1 0x0 DUP1 REVERT JUMPDEST PUSH2 0xFFD DUP2 PUSH2 0xFAC JUMP JUMPDEST DUP2 EQ PUSH2 0x1008 JUMPI PUSH1 0x0 DUP1 REVERT JUMPDEST POP JUMP JUMPDEST PUSH1 0x0 DUP2 CALLDATALOAD SWAP1 POP PUSH2 0x101A DUP2 PUSH2 0xFF4 JUMP JUMPDEST SWAP3 SWAP2 POP POP JUMP JUMPDEST PUSH1 0x0 PUSH1 0x20 DUP3 DUP5 SUB SLT ISZERO PUSH2 0x1036 JUMPI PUSH2 0x1035 PUSH2 0xFEA JUMP JUMPDEST JUMPDEST PUSH1 0x0 PUSH2 0x1044 DUP5 DUP3 DUP6 ADD PUSH2 0x100B JUMP JUMPDEST SWAP2 POP POP SWAP3 SWAP2 POP POP JUMP JUMPDEST PUSH1 0x0 PUSH20 0xFFFFFFFFFFFFFFFFFFFFFFFFFFFFFFFFFFFFFFFF DUP3 AND SWAP1 POP SWAP2 SWAP1 POP JUMP JUMPDEST PUSH1 0x0 PUSH2 0x1078 DUP3 PUSH2 0x104D JUMP JUMPDEST SWAP1 POP SWAP2 SWAP1 POP JUMP JUMPDEST PUSH2 0x1088 DUP2 PUSH2 0x106D JUMP JUMPDEST DUP3 MSTORE POP POP JUMP JUMPDEST PUSH1 0x0 PUSH1 0x20 DUP3 ADD SWAP1 POP PUSH2 0x10A3 PUSH1 0x0 DUP4 ADD DUP5 PUSH2 0x107F JUMP JUMPDEST SWAP3 SWAP2 POP POP JUMP JUMPDEST PUSH2 0x10B2 DUP2 PUSH2 0x106D JUMP JUMPDEST DUP2 EQ PUSH2 0x10BD JUMPI PUSH1 0x0 DUP1 REVERT JUMPDEST POP JUMP JUMPDEST PUSH1 0x0 DUP2 CALLDATALOAD SWAP1 POP PUSH2 0x10CF DUP2 PUSH2 0x10A9 JUMP JUMPDEST SWAP3 SWAP2 POP POP JUMP JUMPDEST PUSH1 0x0 PUSH1 0x20 DUP3 DUP5 SUB SLT ISZERO PUSH2 0x10EB JUMPI PUSH2 0x10EA PUSH2 0xFEA JUMP JUMPDEST JUMPDEST PUSH1 0x0 PUSH2 0x10F9 DUP5 DUP3 DUP6 ADD PUSH2 0x10C0 JUMP JUMPDEST SWAP2 POP POP SWAP3 SWAP2 POP POP JUMP JUMPDEST PUSH1 0x0 DUP2 ISZERO ISZERO SWAP1 POP SWAP2 SWAP1 POP JUMP JUMPDEST PUSH2 0x1117 DUP2 PUSH2 0x1102 JUMP JUMPDEST DUP3 MSTORE POP POP JUMP JUMPDEST PUSH1 0x0 PUSH1 0x20 DUP3 ADD SWAP1 POP PUSH2 0x1132 PUSH1 0x0 DUP4 ADD DUP5 PUSH2 0x110E JUMP JUMPDEST SWAP3 SWAP2 POP POP JUMP JUMPDEST PUSH1 0x0 DUP1 PUSH1 0x40 DUP4 DUP6 SUB SLT ISZERO PUSH2 0x114F JUMPI PUSH2 0x114E PUSH2 0xFEA JUMP JUMPDEST JUMPDEST PUSH1 0x0 PUSH2 0x115D DUP6 DUP3 DUP7 ADD PUSH2 0x100B JUMP JUMPDEST SWAP3 POP POP PUSH1 0x20 PUSH2 0x116E DUP6 DUP3 DUP7 ADD PUSH2 0x10C0 JUMP JUMPDEST SWAP2 POP POP SWAP3 POP SWAP3 SWAP1 POP JUMP JUMPDEST PUSH1 0x0 DUP2 MLOAD SWAP1 POP SWAP2 SWAP1 POP JUMP JUMPDEST PUSH1 0x0 DUP3 DUP3 MSTORE PUSH1 0x20 DUP3 ADD SWAP1 POP SWAP3 SWAP2 POP POP JUMP JUMPDEST PUSH1 0x0 JUMPDEST DUP4 DUP2 LT ISZERO PUSH2 0x11B2 JUMPI DUP1 DUP3 ADD MLOAD DUP2 DUP5 ADD MSTORE PUSH1 0x20 DUP2 ADD SWAP1 POP PUSH2 0x1197 JUMP JUMPDEST DUP4 DUP2 GT ISZERO PUSH2 0x11C1 JUMPI PUSH1 0x0 DUP5 DUP5 ADD MSTORE JUMPDEST POP POP POP POP JUMP JUMPDEST PUSH1 0x0 PUSH1 0x1F NOT PUSH1 0x1F DUP4 ADD AND SWAP1 POP SWAP2 SWAP1 POP JUMP JUMPDEST PUSH1 0x0 PUSH2 0x11E3 DUP3 PUSH2 0x1178 JUMP JUMPDEST PUSH2 0x11ED DUP2 DUP6 PUSH2 0x1183 JUMP JUMPDEST SWAP4 POP PUSH2 0x11FD DUP2 DUP6 PUSH1 0x20 DUP7 ADD PUSH2 0x1194 JUMP JUMPDEST PUSH2 0x1206 DUP2 PUSH2 0x11C7 JUMP JUMPDEST DUP5 ADD SWAP2 POP POP SWAP3 SWAP2 POP POP JUMP JUMPDEST PUSH1 0x0 PUSH1 0xA0 DUP3 ADD SWAP1 POP PUSH2 0x1226 PUSH1 0x0 DUP4 ADD DUP9 PUSH2 0x107F JUMP JUMPDEST PUSH2 0x1233 PUSH1 0x20 DUP4 ADD DUP8 PUSH2 0xFB6 JUMP JUMPDEST DUP2 DUP2 SUB PUSH1 0x40 DUP4 ADD MSTORE PUSH2 0x1245 DUP2 DUP7 PUSH2 0x11D8 JUMP JUMPDEST SWAP1 POP PUSH2 0x1254 PUSH1 0x60 DUP4 ADD DUP6 PUSH2 0x110E JUMP JUMPDEST PUSH2 0x1261 PUSH1 0x80 DUP4 ADD DUP5 PUSH2 0xFB6 JUMP JUMPDEST SWAP7 SWAP6 POP POP POP POP POP POP JUMP JUMPDEST PUSH1 0x0 DUP1 REVERT JUMPDEST PUSH1 0x0 DUP1 REVERT JUMPDEST PUSH32 0x4E487B7100000000000000000000000000000000000000000000000000000000 PUSH1 0x0 MSTORE PUSH1 0x41 PUSH1 0x4 MSTORE PUSH1 0x24 PUSH1 0x0 REVERT JUMPDEST PUSH2 0x12AD DUP3 PUSH2 0x11C7 JUMP JUMPDEST DUP2 ADD DUP2 DUP2 LT PUSH8 0xFFFFFFFFFFFFFFFF DUP3 GT OR ISZERO PUSH2 0x12CC JUMPI PUSH2 0x12CB PUSH2 0x1275 JUMP JUMPDEST JUMPDEST DUP1 PUSH1 0x40 MSTORE POP POP POP JUMP JUMPDEST PUSH1 0x0 PUSH2 0x12DF PUSH2 0xFE0 JUMP JUMPDEST SWAP1 POP PUSH2 0x12EB DUP3 DUP3 PUSH2 0x12A4 JUMP JUMPDEST SWAP2 SWAP1 POP JUMP JUMPDEST PUSH1 0x0 PUSH8 0xFFFFFFFFFFFFFFFF DUP3 GT ISZERO PUSH2 0x130B JUMPI PUSH2 0x130A PUSH2 0x1275 JUMP JUMPDEST JUMPDEST PUSH2 0x1314 DUP3 PUSH2 0x11C7 JUMP JUMPDEST SWAP1 POP PUSH1 0x20 DUP2 ADD SWAP1 POP SWAP2 SWAP1 POP JUMP JUMPDEST DUP3 DUP2 DUP4 CALLDATACOPY PUSH1 0x0 DUP4 DUP4 ADD MSTORE POP POP POP JUMP JUMPDEST PUSH1 0x0 PUSH2 0x1343 PUSH2 0x133E DUP5 PUSH2 0x12F0 JUMP JUMPDEST PUSH2 0x12D5 JUMP JUMPDEST SWAP1 POP DUP3 DUP2 MSTORE PUSH1 0x20 DUP2 ADD DUP5 DUP5 DUP5 ADD GT ISZERO PUSH2 0x135F JUMPI PUSH2 0x135E PUSH2 0x1270 JUMP JUMPDEST JUMPDEST PUSH2 0x136A DUP5 DUP3 DUP6 PUSH2 0x1321 JUMP JUMPDEST POP SWAP4 SWAP3 POP POP POP JUMP JUMPDEST PUSH1 0x0 DUP3 PUSH1 0x1F DUP4 ADD SLT PUSH2 0x1387 JUMPI PUSH2 0x1386 PUSH2 0x126B JUMP JUMPDEST JUMPDEST DUP2 CALLDATALOAD PUSH2 0x1397 DUP5 DUP3 PUSH1 0x20 DUP7 ADD PUSH2 0x1330 JUMP JUMPDEST SWAP2 POP POP SWAP3 SWAP2 POP POP JUMP JUMPDEST PUSH1 0x0 DUP1 PUSH1 0x0 PUSH1 0x60 DUP5 DUP7 SUB SLT ISZERO PUSH2 0x13B9 JUMPI PUSH2 0x13B8 PUSH2 0xFEA JUMP JUMPDEST JUMPDEST PUSH1 0x0 PUSH2 0x13C7 DUP7 DUP3 DUP8 ADD PUSH2 0x10C0 JUMP JUMPDEST SWAP4 POP POP PUSH1 0x20 PUSH2 0x13D8 DUP7 DUP3 DUP8 ADD PUSH2 0x100B JUMP JUMPDEST SWAP3 POP POP PUSH1 0x40 DUP5 ADD CALLDATALOAD PUSH8 0xFFFFFFFFFFFFFFFF DUP2 GT ISZERO PUSH2 0x13F9 JUMPI PUSH2 0x13F8 PUSH2 0xFEF JUMP JUMPDEST JUMPDEST PUSH2 0x1405 DUP7 DUP3 DUP8 ADD PUSH2 0x1372 JUMP JUMPDEST SWAP2 POP POP SWAP3 POP SWAP3 POP SWAP3 JUMP JUMPDEST PUSH1 0x0 DUP3 DUP3 MSTORE PUSH1 0x20 DUP3 ADD SWAP1 POP SWAP3 SWAP2 POP POP JUMP JUMPDEST PUSH32 0x6E6F74206F776E65720000000000000000000000000000000000000000000000 PUSH1 0x0 DUP3 ADD MSTORE POP JUMP JUMPDEST PUSH1 0x0 PUSH2 0x1456 PUSH1 0x9 DUP4 PUSH2 0x140F JUMP JUMPDEST SWAP2 POP PUSH2 0x1461 DUP3 PUSH2 0x1420 JUMP JUMPDEST PUSH1 0x20 DUP3 ADD SWAP1 POP SWAP2 SWAP1 POP JUMP JUMPDEST PUSH1 0x0 PUSH1 0x20 DUP3 ADD SWAP1 POP DUP2 DUP2 SUB PUSH1 0x0 DUP4 ADD MSTORE PUSH2 0x1485 DUP2 PUSH2 0x1449 JUMP JUMPDEST SWAP1 POP SWAP2 SWAP1 POP JUMP JUMPDEST PUSH32 0x747820646F6573206E6F74206578697374000000000000000000000000000000 PUSH1 0x0 DUP3 ADD MSTORE POP JUMP JUMPDEST PUSH1 0x0 PUSH2 0x14C2 PUSH1 0x11 DUP4 PUSH2 0x140F JUMP JUMPDEST SWAP2 POP PUSH2 0x14CD DUP3 PUSH2 0x148C JUMP JUMPDEST PUSH1 0x20 DUP3 ADD SWAP1 POP SWAP2 SWAP1 POP JUMP JUMPDEST PUSH1 0x0 PUSH1 0x20 DUP3 ADD SWAP1 POP DUP2 DUP2 SUB PUSH1 0x0 DUP4 ADD MSTORE PUSH2 0x14F1 DUP2 PUSH2 0x14B5 JUMP JUMPDEST SWAP1 POP SWAP2 SWAP1 POP JUMP JUMPDEST PUSH32 0x4E487B7100000000000000000000000000000000000000000000000000000000 PUSH1 0x0 MSTORE PUSH1 0x32 PUSH1 0x4 MSTORE PUSH1 0x24 PUSH1 0x0 REVERT JUMPDEST PUSH32 0x747820616C726561647920657865637574656400000000000000000000000000 PUSH1 0x0 DUP3 ADD MSTORE POP JUMP JUMPDEST PUSH1 0x0 PUSH2 0x155D PUSH1 0x13 DUP4 PUSH2 0x140F JUMP JUMPDEST SWAP2 POP PUSH2 0x1568 DUP3 PUSH2 0x1527 JUMP JUMPDEST PUSH1 0x20 DUP3 ADD SWAP1 POP SWAP2 SWAP1 POP JUMP JUMPDEST PUSH1 0x0 PUSH1 0x20 DUP3 ADD SWAP1 POP DUP2 DUP2 SUB PUSH1 0x0 DUP4 ADD MSTORE PUSH2 0x158C DUP2 PUSH2 0x1550 JUMP JUMPDEST SWAP1 POP SWAP2 SWAP1 POP JUMP JUMPDEST PUSH32 0x747820616C726561647920636F6E6669726D6564000000000000000000000000 PUSH1 0x0 DUP3 ADD MSTORE POP JUMP JUMPDEST PUSH1 0x0 PUSH2 0x15C9 PUSH1 0x14 DUP4 PUSH2 0x140F JUMP JUMPDEST SWAP2 POP PUSH2 0x15D4 DUP3 PUSH2 0x1593 JUMP JUMPDEST PUSH1 0x20 DUP3 ADD SWAP1 POP SWAP2 SWAP1 POP JUMP JUMPDEST PUSH1 0x0 PUSH1 0x20 DUP3 ADD SWAP1 POP DUP2 DUP2 SUB PUSH1 0x0 DUP4 ADD MSTORE PUSH2 0x15F8 DUP2 PUSH2 0x15BC JUMP JUMPDEST SWAP1 POP SWAP2 SWAP1 POP JUMP JUMPDEST PUSH32 0x4E487B7100000000000000000000000000000000000000000000000000000000 PUSH1 0x0 MSTORE PUSH1 0x11 PUSH1 0x4 MSTORE PUSH1 0x24 PUSH1 0x0 REVERT JUMPDEST PUSH1 0x0 PUSH2 0x1639 DUP3 PUSH2 0xFAC JUMP JUMPDEST SWAP2 POP PUSH2 0x1644 DUP4 PUSH2 0xFAC JUMP JUMPDEST SWAP3 POP DUP3 PUSH32 0xFFFFFFFFFFFFFFFFFFFFFFFFFFFFFFFFFFFFFFFFFFFFFFFFFFFFFFFFFFFFFFFF SUB DUP3 GT ISZERO PUSH2 0x1679 JUMPI PUSH2 0x1678 PUSH2 0x15FF JUMP JUMPDEST JUMPDEST DUP3 DUP3 ADD SWAP1 POP SWAP3 SWAP2 POP POP JUMP JUMPDEST PUSH32 0x4E487B7100000000000000000000000000000000000000000000000000000000 PUSH1 0x0 MSTORE PUSH1 0x22 PUSH1 0x4 MSTORE PUSH1 0x24 PUSH1 0x0 REVERT JUMPDEST PUSH1 0x0 PUSH1 0x2 DUP3 DIV SWAP1 POP PUSH1 0x1 DUP3 AND DUP1 PUSH2 0x16CB JUMPI PUSH1 0x7F DUP3 AND SWAP2 POP JUMPDEST PUSH1 0x20 DUP3 LT DUP2 SUB PUSH2 0x16DE JUMPI PUSH2 0x16DD PUSH2 0x1684 JUMP JUMPDEST JUMPDEST POP SWAP2 SWAP1 POP JUMP JUMPDEST PUSH32 0x7478206E6F7420636F6E6669726D656400000000000000000000000000000000 PUSH1 0x0 DUP3 ADD MSTORE POP JUMP JUMPDEST PUSH1 0x0 PUSH2 0x171A PUSH1 0x10 DUP4 PUSH2 0x140F JUMP JUMPDEST SWAP2 POP PUSH2 0x1725 DUP3 PUSH2 0x16E4 JUMP JUMPDEST PUSH1 0x20 DUP3 ADD SWAP1 POP SWAP2 SWAP1 POP JUMP JUMPDEST PUSH1 0x0 PUSH1 0x20 DUP3 ADD SWAP1 POP DUP2 DUP2 SUB PUSH1 0x0 DUP4 ADD MSTORE PUSH2 0x1749 DUP2 PUSH2 0x170D JUMP JUMPDEST SWAP1 POP SWAP2 SWAP1 POP JUMP JUMPDEST PUSH1 0x0 PUSH2 0x175B DUP3 PUSH2 0xFAC JUMP JUMPDEST SWAP2 POP PUSH2 0x1766 DUP4 PUSH2 0xFAC JUMP JUMPDEST SWAP3 POP DUP3 DUP3 LT ISZERO PUSH2 0x1779 JUMPI PUSH2 0x1778 PUSH2 0x15FF JUMP JUMPDEST JUMPDEST DUP3 DUP3 SUB SWAP1 POP SWAP3 SWAP2 POP POP JUMP JUMPDEST PUSH1 0x0 PUSH1 0x40 DUP3 ADD SWAP1 POP PUSH2 0x1799 PUSH1 0x0 DUP4 ADD DUP6 PUSH2 0xFB6 JUMP JUMPDEST DUP2 DUP2 SUB PUSH1 0x20 DUP4 ADD MSTORE PUSH2 0x17AB DUP2 DUP5 PUSH2 0x11D8 JUMP JUMPDEST SWAP1 POP SWAP4 SWAP3 POP POP POP JUMP JUMPDEST PUSH32 0x63616E6E6F742065786563757465207478000000000000000000000000000000 PUSH1 0x0 DUP3 ADD MSTORE POP JUMP JUMPDEST PUSH1 0x0 PUSH2 0x17EA PUSH1 0x11 DUP4 PUSH2 0x140F JUMP JUMPDEST SWAP2 POP PUSH2 0x17F5 DUP3 PUSH2 0x17B4 JUMP JUMPDEST PUSH1 0x20 DUP3 ADD SWAP1 POP SWAP2 SWAP1 POP JUMP JUMPDEST PUSH1 0x0 PUSH1 0x20 DUP3 ADD SWAP1 POP DUP2 DUP2 SUB PUSH1 0x0 DUP4 ADD MSTORE PUSH2 0x1819 DUP2 PUSH2 0x17DD JUMP JUMPDEST SWAP1 POP SWAP2 SWAP1 POP JUMP JUMPDEST PUSH1 0x0 DUP2 SWAP1 POP SWAP3 SWAP2 POP POP JUMP JUMPDEST PUSH1 0x0 DUP2 SWAP1 POP DUP2 PUSH1 0x0 MSTORE PUSH1 0x20 PUSH1 0x0 KECCAK256 SWAP1 POP SWAP2 SWAP1 POP JUMP JUMPDEST PUSH1 0x0 DUP2 SLOAD PUSH2 0x184D DUP2 PUSH2 0x16B3 JUMP JUMPDEST PUSH2 0x1857 DUP2 DUP7 PUSH2 0x1820 JUMP JUMPDEST SWAP5 POP PUSH1 0x1 DUP3 AND PUSH1 0x0 DUP2 EQ PUSH2 0x1872 JUMPI PUSH1 0x1 DUP2 EQ PUSH2 0x1883 JUMPI PUSH2 0x18B6 JUMP JUMPDEST PUSH1 0xFF NOT DUP4 AND DUP7 MSTORE DUP2 DUP7 ADD SWAP4 POP PUSH2 0x18B6 JUMP JUMPDEST PUSH2 0x188C DUP6 PUSH2 0x182B JUMP JUMPDEST PUSH1 0x0 JUMPDEST DUP4 DUP2 LT ISZERO PUSH2 0x18AE JUMPI DUP2 SLOAD DUP2 DUP10 ADD MSTORE PUSH1 0x1 DUP3 ADD SWAP2 POP PUSH1 0x20 DUP2 ADD SWAP1 POP PUSH2 0x188F JUMP JUMPDEST DUP4 DUP9 ADD SWAP6 POP POP POP JUMPDEST POP POP POP SWAP3 SWAP2 POP POP JUMP JUMPDEST PUSH1 0x0 PUSH2 0x18CB DUP3 DUP5 PUSH2 0x1840 JUMP JUMPDEST SWAP2 POP DUP2 SWAP1 POP SWAP3 SWAP2 POP POP JUMP INVALID LOG2 PUSH5 0x6970667358 0x22 SLT KECCAK256 0xE8 EXTCODESIZE 0xEC DUP14 0x28 0xAF 0xE7 INVALID 0xCD 0xA7 ADDRESS MUL SWAP12 0xD2 0x4D 0xE3 0x4D KECCAK256 DUP15 0xF6 CALLDATALOAD DUP14 ADDRESS 0x28 0xA5 0xD7 0xCF DUP9 0x2B SIGNEXTEND DUP10 0x4F PUSH5 0x736F6C6343 STOP ADDMOD 0xD STOP CALLER "
        },
        "methodIdentifiers": {
          "approvalsRequired()": "ea1d59c9",
          "approveTransaction(uint256)": "242232d1",
          "executeTransaction(uint256)": "ee22610b",
          "isApproved(uint256,address)": "56c31637",
          "isOwner(address)": "2f54bf6e",
          "owners(uint256)": "025e7c27",
          "revokeApproval(uint256)": "b1e130fc",
          "submitTransaction(address,uint256,bytes)": "c6427474",
          "transactions(uint256)": "9ace38c2"
        }
      }
    }
  }
}