{
  "_format": "hh-sol-artifact-1",
  "contractName": "multiSigWallet_extend_v1",
  "sourceName": "contracts/multiSig_extend.sol",
  "abi": [
    {
      "inputs": [
        {
          "internalType": "address[]",
          "name": "initialPermittedUsers",
          "type": "address[]"
        },
        {
          "internalType": "uint256",
          "name": "defaultRequirements",
          "type": "uint256"
        }
      ],
      "stateMutability": "nonpayable",
      "type": "constructor"
    },
    {
      "anonymous": false,
      "inputs": [
        {
          "indexed": false,
          "internalType": "uint256",
          "name": "id",
          "type": "uint256"
        }
      ],
      "name": "AdminDisapproval",
      "type": "event"
    },
    {
      "anonymous": false,
      "inputs": [
        {
          "indexed": true,
          "internalType": "address",
          "name": "user",
          "type": "address"
        },
        {
          "indexed": false,
          "internalType": "uint256",
          "name": "id",
          "type": "uint256"
        }
      ],
      "name": "Approve",
      "type": "event"
    },
    {
      "anonymous": false,
      "inputs": [
        {
          "indexed": false,
          "internalType": "uint256",
          "name": "newRequirements",
          "type": "uint256"
        }
      ],
      "name": "ChangeRequirements",
      "type": "event"
    },
    {
      "anonymous": false,
      "inputs": [
        {
          "indexed": true,
          "internalType": "address",
          "name": "user",
          "type": "address"
        },
        {
          "indexed": false,
          "internalType": "uint256",
          "name": "amount",
          "type": "uint256"
        },
        {
          "indexed": false,
          "internalType": "uint256",
          "name": "balance",
          "type": "uint256"
        }
      ],
      "name": "Deposit",
      "type": "event"
    },
    {
      "anonymous": false,
      "inputs": [
        {
          "indexed": true,
          "internalType": "address",
          "name": "user",
          "type": "address"
        },
        {
          "indexed": false,
          "internalType": "uint256",
          "name": "id",
          "type": "uint256"
        }
      ],
      "name": "Execute",
      "type": "event"
    },
    {
      "anonymous": false,
      "inputs": [
        {
          "indexed": true,
          "internalType": "address",
          "name": "user",
          "type": "address"
        },
        {
          "indexed": true,
          "internalType": "uint256",
          "name": "id",
          "type": "uint256"
        }
      ],
      "name": "ExecutionFailed",
      "type": "event"
    },
    {
      "anonymous": false,
      "inputs": [
        {
          "indexed": true,
          "internalType": "address",
          "name": "user",
          "type": "address"
        },
        {
          "indexed": false,
          "internalType": "uint256",
          "name": "id",
          "type": "uint256"
        }
      ],
      "name": "Revoke",
      "type": "event"
    },
    {
      "anonymous": false,
      "inputs": [
        {
          "indexed": true,
          "internalType": "address",
          "name": "user",
          "type": "address"
        },
        {
          "indexed": false,
          "internalType": "uint256",
          "name": "id",
          "type": "uint256"
        },
        {
          "indexed": true,
          "internalType": "address",
          "name": "to",
          "type": "address"
        },
        {
          "indexed": false,
          "internalType": "uint256",
          "name": "value",
          "type": "uint256"
        },
        {
          "indexed": false,
          "internalType": "bytes",
          "name": "data",
          "type": "bytes"
        }
      ],
      "name": "SubmitTransaction",
      "type": "event"
    },
    {
      "anonymous": false,
      "inputs": [
        {
          "indexed": true,
          "internalType": "address",
          "name": "user",
          "type": "address"
        }
      ],
      "name": "UserAdded",
      "type": "event"
    },
    {
      "inputs": [
        {
          "internalType": "uint256",
          "name": "",
          "type": "uint256"
        }
      ],
      "name": "TXPool",
      "outputs": [
        {
          "internalType": "address",
          "name": "to",
          "type": "address"
        },
        {
          "internalType": "uint256",
          "name": "value",
          "type": "uint256"
        },
        {
          "internalType": "bytes",
          "name": "data",
          "type": "bytes"
        },
        {
          "internalType": "bool",
          "name": "executed",
          "type": "bool"
        },
        {
          "internalType": "bool",
          "name": "denied",
          "type": "bool"
        },
        {
          "internalType": "uint256",
          "name": "numApprovals",
          "type": "uint256"
        },
        {
          "internalType": "uint256",
          "name": "requiredApprovals",
          "type": "uint256"
        }
      ],
      "stateMutability": "view",
      "type": "function"
    },
    {
      "inputs": [
        {
          "internalType": "address",
          "name": "newUser",
          "type": "address"
        }
      ],
      "name": "addUser",
      "outputs": [],
      "stateMutability": "nonpayable",
      "type": "function"
    },
    {
      "inputs": [],
      "name": "admin",
      "outputs": [
        {
          "internalType": "address",
          "name": "",
          "type": "address"
        }
      ],
      "stateMutability": "view",
      "type": "function"
    },
    {
      "inputs": [
        {
          "internalType": "uint256",
          "name": "txID",
          "type": "uint256"
        }
      ],
      "name": "approveTransaction",
      "outputs": [],
      "stateMutability": "nonpayable",
      "type": "function"
    },
    {
      "inputs": [],
      "name": "balance",
      "outputs": [
        {
          "internalType": "uint256",
          "name": "",
          "type": "uint256"
        }
      ],
      "stateMutability": "view",
      "type": "function"
    },
    {
      "inputs": [
        {
          "internalType": "uint256",
          "name": "newRequirements",
          "type": "uint256"
        }
      ],
      "name": "changeRequirements",
      "outputs": [],
      "stateMutability": "nonpayable",
      "type": "function"
    },
    {
      "inputs": [
        {
          "internalType": "uint256",
          "name": "txID",
          "type": "uint256"
        }
      ],
      "name": "denyTransaction",
      "outputs": [],
      "stateMutability": "nonpayable",
      "type": "function"
    },
    {
      "inputs": [
        {
          "internalType": "uint256",
          "name": "txID",
          "type": "uint256"
        }
      ],
      "name": "executeTransaction",
      "outputs": [],
      "stateMutability": "nonpayable",
      "type": "function"
    },
    {
      "inputs": [
        {
          "internalType": "uint256",
          "name": "",
          "type": "uint256"
        },
        {
          "internalType": "address",
          "name": "",
          "type": "address"
        }
      ],
      "name": "isApproved",
      "outputs": [
        {
          "internalType": "bool",
          "name": "",
          "type": "bool"
        }
      ],
      "stateMutability": "view",
      "type": "function"
    },
    {
      "inputs": [
        {
          "internalType": "address",
          "name": "",
          "type": "address"
        }
      ],
      "name": "isPermitted",
      "outputs": [
        {
          "internalType": "bool",
          "name": "",
          "type": "bool"
        }
      ],
      "stateMutability": "view",
      "type": "function"
    },
    {
      "inputs": [],
      "name": "permittedUsers",
      "outputs": [
        {
          "internalType": "uint256",
          "name": "",
          "type": "uint256"
        }
      ],
      "stateMutability": "view",
      "type": "function"
    },
    {
      "inputs": [
        {
          "internalType": "address",
          "name": "newUser",
          "type": "address"
        }
      ],
      "name": "removeUser",
      "outputs": [],
      "stateMutability": "nonpayable",
      "type": "function"
    },
    {
      "inputs": [],
      "name": "requirements",
      "outputs": [
        {
          "internalType": "uint256",
          "name": "",
          "type": "uint256"
        }
      ],
      "stateMutability": "view",
      "type": "function"
    },
    {
      "inputs": [
        {
          "internalType": "uint256",
          "name": "txID",
          "type": "uint256"
        }
      ],
      "name": "revokeApproval",
      "outputs": [],
      "stateMutability": "nonpayable",
      "type": "function"
    },
    {
      "inputs": [
        {
          "internalType": "address",
          "name": "to",
          "type": "address"
        },
        {
          "internalType": "uint256",
          "name": "value",
          "type": "uint256"
        },
        {
          "internalType": "bytes",
          "name": "data",
          "type": "bytes"
        }
      ],
      "name": "submitTransaction",
      "outputs": [],
      "stateMutability": "nonpayable",
      "type": "function"
    },
    {
      "stateMutability": "payable",
      "type": "receive"
    }
  ],
  "bytecode": "0x60806040523480156200001157600080fd5b5060405162002e9338038062002e93833981810160405281019062000037919062000531565b81518111156200007e576040517f08c379a00000000000000000000000000000000000000000000000000000000081526004016200007590620005f8565b60405180910390fd5b336000806101000a81548173ffffffffffffffffffffffffffffffffffffffff021916908373ffffffffffffffffffffffffffffffffffffffff1602179055506001600360008060009054906101000a900473ffffffffffffffffffffffffffffffffffffffff1673ffffffffffffffffffffffffffffffffffffffff1673ffffffffffffffffffffffffffffffffffffffff16815260200190815260200160002060006101000a81548160ff0219169083151502179055506001808190555060005b8251811015620002f85760008382815181106200016357620001626200061a565b5b60200260200101519050600073ffffffffffffffffffffffffffffffffffffffff168173ffffffffffffffffffffffffffffffffffffffff1603620001df576040517f08c379a0000000000000000000000000000000000000000000000000000000008152600401620001d69062000699565b60405180910390fd5b600360008273ffffffffffffffffffffffffffffffffffffffff1673ffffffffffffffffffffffffffffffffffffffff16815260200190815260200160002060009054906101000a900460ff16156200026f576040517f08c379a000000000000000000000000000000000000000000000000000000000815260040162000266906200070b565b60405180910390fd5b6001600360008373ffffffffffffffffffffffffffffffffffffffff1673ffffffffffffffffffffffffffffffffffffffff16815260200190815260200160002060006101000a81548160ff02191690831515021790555060016000815480929190620002dc906200075c565b9190505550508080620002ef906200075c565b91505062000141565b50806005819055505050620007a9565b6000604051905090565b600080fd5b600080fd5b600080fd5b6000601f19601f8301169050919050565b7f4e487b7100000000000000000000000000000000000000000000000000000000600052604160045260246000fd5b6200036c8262000321565b810181811067ffffffffffffffff821117156200038e576200038d62000332565b5b80604052505050565b6000620003a362000308565b9050620003b1828262000361565b919050565b600067ffffffffffffffff821115620003d457620003d362000332565b5b602082029050602081019050919050565b600080fd5b600073ffffffffffffffffffffffffffffffffffffffff82169050919050565b60006200041782620003ea565b9050919050565b62000429816200040a565b81146200043557600080fd5b50565b60008151905062000449816200041e565b92915050565b6000620004666200046084620003b6565b62000397565b905080838252602082019050602084028301858111156200048c576200048b620003e5565b5b835b81811015620004b95780620004a4888262000438565b8452602084019350506020810190506200048e565b5050509392505050565b600082601f830112620004db57620004da6200031c565b5b8151620004ed8482602086016200044f565b91505092915050565b6000819050919050565b6200050b81620004f6565b81146200051757600080fd5b50565b6000815190506200052b8162000500565b92915050565b600080604083850312156200054b576200054a62000312565b5b600083015167ffffffffffffffff8111156200056c576200056b62000317565b5b6200057a85828601620004c3565b92505060206200058d858286016200051a565b9150509250929050565b600082825260208201905092915050565b7f696d706f737369626c6520726571756972656d656e7400000000000000000000600082015250565b6000620005e060168362000597565b9150620005ed82620005a8565b602082019050919050565b600060208201905081810360008301526200061381620005d1565b9050919050565b7f4e487b7100000000000000000000000000000000000000000000000000000000600052603260045260246000fd5b7f696e76616c696420757365720000000000000000000000000000000000000000600082015250565b600062000681600c8362000597565b91506200068e8262000649565b602082019050919050565b60006020820190508181036000830152620006b48162000672565b9050919050565b7f75736572206e6f7420756e697175650000000000000000000000000000000000600082015250565b6000620006f3600f8362000597565b91506200070082620006bb565b602082019050919050565b600060208201905081810360008301526200072681620006e4565b9050919050565b7f4e487b7100000000000000000000000000000000000000000000000000000000600052601160045260246000fd5b60006200076982620004f6565b91507fffffffffffffffffffffffffffffffffffffffffffffffffffffffffffffffff82036200079e576200079d6200072d565b5b600182019050919050565b6126da80620007b96000396000f3fe6080604052600436106100ec5760003560e01c8063985751881161008a578063bd2928da11610059578063bd2928da1461034f578063c642747414610392578063ee22610b146103bb578063f851a440146103e457610159565b806398575188146102a7578063a51b4b65146102d0578063b1e130fc146102fb578063b69ef8a81461032457610159565b80633fd8cc4e116100c65780633fd8cc4e146101db578063421b2d8b1461021857806356c316371461024157806371a1c5d81461027e57610159565b806311a02c271461015e578063242232d1146101895780632acbad3d146101b257610159565b3661015957346006546100ff9190611a67565b6006819055503373ffffffffffffffffffffffffffffffffffffffff167f90890809c654f11d6e72a28fa60149770a0d11ec6c92319d6ceb2bb0a4ea1a153460065460405161014f929190611acc565b60405180910390a2005b600080fd5b34801561016a57600080fd5b5061017361040f565b6040516101809190611af5565b60405180910390f35b34801561019557600080fd5b506101b060048036038101906101ab9190611b50565b610415565b005b3480156101be57600080fd5b506101d960048036038101906101d49190611b50565b610770565b005b3480156101e757600080fd5b5061020260048036038101906101fd9190611bdb565b61084d565b60405161020f9190611c23565b60405180910390f35b34801561022457600080fd5b5061023f600480360381019061023a9190611bdb565b61086d565b005b34801561024d57600080fd5b5061026860048036038101906102639190611c3e565b610aad565b6040516102759190611c23565b60405180910390f35b34801561028a57600080fd5b506102a560048036038101906102a09190611b50565b610adc565b005b3480156102b357600080fd5b506102ce60048036038101906102c99190611bdb565b610cde565b005b3480156102dc57600080fd5b506102e5610e6b565b6040516102f29190611af5565b60405180910390f35b34801561030757600080fd5b50610322600480360381019061031d9190611b50565b610e71565b005b34801561033057600080fd5b506103396111cb565b6040516103469190611af5565b60405180910390f35b34801561035b57600080fd5b5061037660048036038101906103719190611b50565b6111d1565b6040516103899796959493929190611d26565b60405180910390f35b34801561039e57600080fd5b506103b960048036038101906103b49190611ed1565b6112e5565b005b3480156103c757600080fd5b506103e260048036038101906103dd9190611b50565b611532565b005b3480156103f057600080fd5b506103f9611967565b6040516104069190611f40565b60405180910390f35b60015481565b60011515600360003373ffffffffffffffffffffffffffffffffffffffff1673ffffffffffffffffffffffffffffffffffffffff16815260200190815260200160002060009054906101000a900460ff161515146104a8576040517f08c379a000000000000000000000000000000000000000000000000000000000815260040161049f90611fb8565b60405180910390fd5b8060028054905081106104f0576040517f08c379a00000000000000000000000000000000000000000000000000000000081526004016104e790612024565b60405180910390fd5b816002818154811061050557610504612044565b5b906000526020600020906006020160030160009054906101000a900460ff1615610564576040517f08c379a000000000000000000000000000000000000000000000000000000000815260040161055b906120bf565b60405180910390fd5b826004600082815260200190815260200160002060003373ffffffffffffffffffffffffffffffffffffffff1673ffffffffffffffffffffffffffffffffffffffff16815260200190815260200160002060009054906101000a900460ff1615610603576040517f08c379a00000000000000000000000000000000000000000000000000000000081526004016105fa9061212b565b60405180910390fd5b836002818154811061061857610617612044565b5b906000526020600020906006020160030160019054906101000a900460ff1615610677576040517f08c379a000000000000000000000000000000000000000000000000000000000815260040161066e90612197565b60405180910390fd5b6002858154811061068b5761068a612044565b5b906000526020600020906006020160040160008154809291906106ad906121b7565b919050555060016004600087815260200190815260200160002060003373ffffffffffffffffffffffffffffffffffffffff1673ffffffffffffffffffffffffffffffffffffffff16815260200190815260200160002060006101000a81548160ff0219169083151502179055503373ffffffffffffffffffffffffffffffffffffffff167f90ec57f18fa7b15c6b8d5e4d1deb90796c74b2ff23d4d0cecad0cb42a96b3128866040516107619190611af5565b60405180910390a25050505050565b60008054906101000a900473ffffffffffffffffffffffffffffffffffffffff1673ffffffffffffffffffffffffffffffffffffffff163373ffffffffffffffffffffffffffffffffffffffff16146107fe576040517f08c379a00000000000000000000000000000000000000000000000000000000081526004016107f59061224b565b60405180910390fd5b600154811115610843576040517f08c379a000000000000000000000000000000000000000000000000000000000815260040161083a906122b7565b60405180910390fd5b8060058190555050565b60036020528060005260406000206000915054906101000a900460ff1681565b60008054906101000a900473ffffffffffffffffffffffffffffffffffffffff1673ffffffffffffffffffffffffffffffffffffffff163373ffffffffffffffffffffffffffffffffffffffff16146108fb576040517f08c379a00000000000000000000000000000000000000000000000000000000081526004016108f29061224b565b60405180910390fd5b600360008273ffffffffffffffffffffffffffffffffffffffff1673ffffffffffffffffffffffffffffffffffffffff16815260200190815260200160002060009054906101000a900460ff1615610988576040517f08c379a000000000000000000000000000000000000000000000000000000000815260040161097f90612323565b60405180910390fd5b600073ffffffffffffffffffffffffffffffffffffffff168173ffffffffffffffffffffffffffffffffffffffff16036109f7576040517f08c379a00000000000000000000000000000000000000000000000000000000081526004016109ee9061238f565b60405180910390fd5b6001600360008373ffffffffffffffffffffffffffffffffffffffff1673ffffffffffffffffffffffffffffffffffffffff16815260200190815260200160002060006101000a81548160ff02191690831515021790555060016000815480929190610a62906121b7565b91905055508073ffffffffffffffffffffffffffffffffffffffff167f19ef9a4877199f89440a26acb26895ec02ed86f2df1aeaa90dc18041b892f71f60405160405180910390a250565b60046020528160005260406000206020528060005260406000206000915091509054906101000a900460ff1681565b60008054906101000a900473ffffffffffffffffffffffffffffffffffffffff1673ffffffffffffffffffffffffffffffffffffffff163373ffffffffffffffffffffffffffffffffffffffff1614610b6a576040517f08c379a0000000000000000000000000000000000000000000000000000000008152600401610b619061224b565b60405180910390fd5b8060028181548110610b7f57610b7e612044565b5b906000526020600020906006020160030160009054906101000a900460ff1615610bde576040517f08c379a0000000000000000000000000000000000000000000000000000000008152600401610bd5906120bf565b60405180910390fd5b8160028181548110610bf357610bf2612044565b5b906000526020600020906006020160030160019054906101000a900460ff1615610c52576040517f08c379a0000000000000000000000000000000000000000000000000000000008152600401610c4990612197565b60405180910390fd5b826002805490508110610c9a576040517f08c379a0000000000000000000000000000000000000000000000000000000008152600401610c9190612024565b60405180910390fd5b600160028581548110610cb057610caf612044565b5b906000526020600020906006020160030160016101000a81548160ff02191690831515021790555050505050565b60008054906101000a900473ffffffffffffffffffffffffffffffffffffffff1673ffffffffffffffffffffffffffffffffffffffff163373ffffffffffffffffffffffffffffffffffffffff1614610d6c576040517f08c379a0000000000000000000000000000000000000000000000000000000008152600401610d639061224b565b60405180910390fd5b600360008273ffffffffffffffffffffffffffffffffffffffff1673ffffffffffffffffffffffffffffffffffffffff16815260200190815260200160002060009054906101000a900460ff16610df8576040517f08c379a0000000000000000000000000000000000000000000000000000000008152600401610def906123fb565b60405180910390fd5b6000600360008373ffffffffffffffffffffffffffffffffffffffff1673ffffffffffffffffffffffffffffffffffffffff16815260200190815260200160002060006101000a81548160ff02191690831515021790555060016000815480929190610e639061241b565b919050555050565b60055481565b60011515600360003373ffffffffffffffffffffffffffffffffffffffff1673ffffffffffffffffffffffffffffffffffffffff16815260200190815260200160002060009054906101000a900460ff16151514610f04576040517f08c379a0000000000000000000000000000000000000000000000000000000008152600401610efb90611fb8565b60405180910390fd5b806002805490508110610f4c576040517f08c379a0000000000000000000000000000000000000000000000000000000008152600401610f4390612024565b60405180910390fd5b8160028181548110610f6157610f60612044565b5b906000526020600020906006020160030160009054906101000a900460ff1615610fc0576040517f08c379a0000000000000000000000000000000000000000000000000000000008152600401610fb7906120bf565b60405180910390fd5b8260028181548110610fd557610fd4612044565b5b906000526020600020906006020160030160019054906101000a900460ff1615611034576040517f08c379a000000000000000000000000000000000000000000000000000000000815260040161102b90612197565b60405180910390fd5b6004600085815260200190815260200160002060003373ffffffffffffffffffffffffffffffffffffffff1673ffffffffffffffffffffffffffffffffffffffff16815260200190815260200160002060009054906101000a900460ff166110d1576040517f08c379a00000000000000000000000000000000000000000000000000000000081526004016110c890612490565b60405180910390fd5b6001600285815481106110e7576110e6612044565b5b9060005260206000209060060201600401600082825461110791906124b0565b9250508190555060006004600086815260200190815260200160002060003373ffffffffffffffffffffffffffffffffffffffff1673ffffffffffffffffffffffffffffffffffffffff16815260200190815260200160002060006101000a81548160ff0219169083151502179055503373ffffffffffffffffffffffffffffffffffffffff167fec9ab91322523c899ede7830ec9bfc992b5981cdcc27b91162fb23de5791117b856040516111bd9190611af5565b60405180910390a250505050565b60065481565b600281815481106111e157600080fd5b90600052602060002090600602016000915090508060000160009054906101000a900473ffffffffffffffffffffffffffffffffffffffff169080600101549080600201805461123090612513565b80601f016020809104026020016040519081016040528092919081815260200182805461125c90612513565b80156112a95780601f1061127e576101008083540402835291602001916112a9565b820191906000526020600020905b81548152906001019060200180831161128c57829003601f168201915b5050505050908060030160009054906101000a900460ff16908060030160019054906101000a900460ff16908060040154908060050154905087565b60011515600360003373ffffffffffffffffffffffffffffffffffffffff1673ffffffffffffffffffffffffffffffffffffffff16815260200190815260200160002060009054906101000a900460ff16151514611378576040517f08c379a000000000000000000000000000000000000000000000000000000000815260040161136f90611fb8565b60405180910390fd5b6000600280549050905060026040518060e001604052808673ffffffffffffffffffffffffffffffffffffffff16815260200185815260200184815260200160001515815260200160001515815260200160008152602001600554815250908060018154018082558091505060019003906000526020600020906006020160009091909190915060008201518160000160006101000a81548173ffffffffffffffffffffffffffffffffffffffff021916908373ffffffffffffffffffffffffffffffffffffffff16021790555060208201518160010155604082015181600201908051906020019061146c92919061198b565b5060608201518160030160006101000a81548160ff02191690831515021790555060808201518160030160016101000a81548160ff02191690831515021790555060a0820151816004015560c0820151816005015550508373ffffffffffffffffffffffffffffffffffffffff163373ffffffffffffffffffffffffffffffffffffffff167fd5a05bf70715ad82a09a756320284a1b54c9ff74cd0f8cce6219e79b563fe59d83868660405161152493929190612544565b60405180910390a350505050565b60011515600360003373ffffffffffffffffffffffffffffffffffffffff1673ffffffffffffffffffffffffffffffffffffffff16815260200190815260200160002060009054906101000a900460ff161515146115c5576040517f08c379a00000000000000000000000000000000000000000000000000000000081526004016115bc90611fb8565b60405180910390fd5b80600280549050811061160d576040517f08c379a000000000000000000000000000000000000000000000000000000000815260040161160490612024565b60405180910390fd5b816002818154811061162257611621612044565b5b906000526020600020906006020160030160009054906101000a900460ff1615611681576040517f08c379a0000000000000000000000000000000000000000000000000000000008152600401611678906120bf565b60405180910390fd5b826002818154811061169657611695612044565b5b906000526020600020906006020160030160019054906101000a900460ff16156116f5576040517f08c379a00000000000000000000000000000000000000000000000000000000081526004016116ec90612197565b60405180910390fd5b6002848154811061170957611708612044565b5b9060005260206000209060060201600501546002858154811061172f5761172e612044565b5b9060005260206000209060060201600401541015611782576040517f08c379a0000000000000000000000000000000000000000000000000000000008152600401611779906125ce565b60405180910390fd5b60016002858154811061179857611797612044565b5b906000526020600020906006020160030160006101000a81548160ff0219169083151502179055506000600285815481106117d6576117d5612044565b5b906000526020600020906006020160000160009054906101000a900473ffffffffffffffffffffffffffffffffffffffff1673ffffffffffffffffffffffffffffffffffffffff166002868154811061183257611831612044565b5b9060005260206000209060060201600101546002878154811061185857611857612044565b5b9060005260206000209060060201600201604051611876919061268d565b60006040518083038185875af1925050503d80600081146118b3576040519150601f19603f3d011682016040523d82523d6000602084013e6118b8565b606091505b50509050600115158115150361191b573373ffffffffffffffffffffffffffffffffffffffff167f892cd8f5b436bd5fb7dac1f11aafb73345d892ba3e9fe09cd94d95ba84928e738660405161190e9190611af5565b60405180910390a2611960565b843373ffffffffffffffffffffffffffffffffffffffff167fa2bd93be155d3bc3e3f43d3b4ac0e02cbeb3fe35ca79384a7a18ff308d5a59c860405160405180910390a35b5050505050565b60008054906101000a900473ffffffffffffffffffffffffffffffffffffffff1681565b82805461199790612513565b90600052602060002090601f0160209004810192826119b95760008555611a00565b82601f106119d257805160ff1916838001178555611a00565b82800160010185558215611a00579182015b828111156119ff5782518255916020019190600101906119e4565b5b509050611a0d9190611a11565b5090565b5b80821115611a2a576000816000905550600101611a12565b5090565b6000819050919050565b7f4e487b7100000000000000000000000000000000000000000000000000000000600052601160045260246000fd5b6000611a7282611a2e565b9150611a7d83611a2e565b9250827fffffffffffffffffffffffffffffffffffffffffffffffffffffffffffffffff03821115611ab257611ab1611a38565b5b828201905092915050565b611ac681611a2e565b82525050565b6000604082019050611ae16000830185611abd565b611aee6020830184611abd565b9392505050565b6000602082019050611b0a6000830184611abd565b92915050565b6000604051905090565b600080fd5b600080fd5b611b2d81611a2e565b8114611b3857600080fd5b50565b600081359050611b4a81611b24565b92915050565b600060208284031215611b6657611b65611b1a565b5b6000611b7484828501611b3b565b91505092915050565b600073ffffffffffffffffffffffffffffffffffffffff82169050919050565b6000611ba882611b7d565b9050919050565b611bb881611b9d565b8114611bc357600080fd5b50565b600081359050611bd581611baf565b92915050565b600060208284031215611bf157611bf0611b1a565b5b6000611bff84828501611bc6565b91505092915050565b60008115159050919050565b611c1d81611c08565b82525050565b6000602082019050611c386000830184611c14565b92915050565b60008060408385031215611c5557611c54611b1a565b5b6000611c6385828601611b3b565b9250506020611c7485828601611bc6565b9150509250929050565b611c8781611b9d565b82525050565b600081519050919050565b600082825260208201905092915050565b60005b83811015611cc7578082015181840152602081019050611cac565b83811115611cd6576000848401525b50505050565b6000601f19601f8301169050919050565b6000611cf882611c8d565b611d028185611c98565b9350611d12818560208601611ca9565b611d1b81611cdc565b840191505092915050565b600060e082019050611d3b600083018a611c7e565b611d486020830189611abd565b8181036040830152611d5a8188611ced565b9050611d696060830187611c14565b611d766080830186611c14565b611d8360a0830185611abd565b611d9060c0830184611abd565b98975050505050505050565b600080fd5b600080fd5b7f4e487b7100000000000000000000000000000000000000000000000000000000600052604160045260246000fd5b611dde82611cdc565b810181811067ffffffffffffffff82111715611dfd57611dfc611da6565b5b80604052505050565b6000611e10611b10565b9050611e1c8282611dd5565b919050565b600067ffffffffffffffff821115611e3c57611e3b611da6565b5b611e4582611cdc565b9050602081019050919050565b82818337600083830152505050565b6000611e74611e6f84611e21565b611e06565b905082815260208101848484011115611e9057611e8f611da1565b5b611e9b848285611e52565b509392505050565b600082601f830112611eb857611eb7611d9c565b5b8135611ec8848260208601611e61565b91505092915050565b600080600060608486031215611eea57611ee9611b1a565b5b6000611ef886828701611bc6565b9350506020611f0986828701611b3b565b925050604084013567ffffffffffffffff811115611f2a57611f29611b1f565b5b611f3686828701611ea3565b9150509250925092565b6000602082019050611f556000830184611c7e565b92915050565b600082825260208201905092915050565b7f6f6e6c79207065726d6974746564557365727300000000000000000000000000600082015250565b6000611fa2601383611f5b565b9150611fad82611f6c565b602082019050919050565b60006020820190508181036000830152611fd181611f95565b9050919050565b7f747820646f6573206e6f74206578697374000000000000000000000000000000600082015250565b600061200e601183611f5b565b915061201982611fd8565b602082019050919050565b6000602082019050818103600083015261203d81612001565b9050919050565b7f4e487b7100000000000000000000000000000000000000000000000000000000600052603260045260246000fd5b7f747820616c726561647920657865637574656400000000000000000000000000600082015250565b60006120a9601383611f5b565b91506120b482612073565b602082019050919050565b600060208201905081810360008301526120d88161209c565b9050919050565b7f747820616c726561647920617070726f76656400000000000000000000000000600082015250565b6000612115601383611f5b565b9150612120826120df565b602082019050919050565b6000602082019050818103600083015261214481612108565b9050919050565b7f74782064656e6965642062792061646d696e0000000000000000000000000000600082015250565b6000612181601283611f5b565b915061218c8261214b565b602082019050919050565b600060208201905081810360008301526121b081612174565b9050919050565b60006121c282611a2e565b91507fffffffffffffffffffffffffffffffffffffffffffffffffffffffffffffffff82036121f4576121f3611a38565b5b600182019050919050565b7f6f6e6c792061646d696e00000000000000000000000000000000000000000000600082015250565b6000612235600a83611f5b565b9150612240826121ff565b602082019050919050565b6000602082019050818103600083015261226481612228565b9050919050565b7f696d706f737369626c6520726571756972656d656e7400000000000000000000600082015250565b60006122a1601683611f5b565b91506122ac8261226b565b602082019050919050565b600060208201905081810360008301526122d081612294565b9050919050565b7f7573657220616c7265616479207065726d697474656400000000000000000000600082015250565b600061230d601683611f5b565b9150612318826122d7565b602082019050919050565b6000602082019050818103600083015261233c81612300565b9050919050565b7f7573657220696e76616c69640000000000000000000000000000000000000000600082015250565b6000612379600c83611f5b565b915061238482612343565b602082019050919050565b600060208201905081810360008301526123a88161236c565b9050919050565b7f7573657220616c7265616479206e6f74207065726d6974746564000000000000600082015250565b60006123e5601a83611f5b565b91506123f0826123af565b602082019050919050565b60006020820190508181036000830152612414816123d8565b9050919050565b600061242682611a2e565b91506000820361243957612438611a38565b5b600182039050919050565b7f7478206e6f7420617070726f7665640000000000000000000000000000000000600082015250565b600061247a600f83611f5b565b915061248582612444565b602082019050919050565b600060208201905081810360008301526124a98161246d565b9050919050565b60006124bb82611a2e565b91506124c683611a2e565b9250828210156124d9576124d8611a38565b5b828203905092915050565b7f4e487b7100000000000000000000000000000000000000000000000000000000600052602260045260246000fd5b6000600282049050600182168061252b57607f821691505b60208210810361253e5761253d6124e4565b5b50919050565b60006060820190506125596000830186611abd565b6125666020830185611abd565b81810360408301526125788184611ced565b9050949350505050565b7f63616e6e6f742065786563757465207478000000000000000000000000000000600082015250565b60006125b8601183611f5b565b91506125c382612582565b602082019050919050565b600060208201905081810360008301526125e7816125ab565b9050919050565b600081905092915050565b60008190508160005260206000209050919050565b6000815461261b81612513565b61262581866125ee565b94506001821660008114612640576001811461265157612684565b60ff19831686528186019350612684565b61265a856125f9565b60005b8381101561267c5781548189015260018201915060208101905061265d565b838801955050505b50505092915050565b6000612699828461260e565b91508190509291505056fea2646970667358221220e1d5e93154344ab9898c9ff484f590f5ebc62d8f0ba9df3c887f5b3dffcdea5d64736f6c634300080d0033",
  "linkReferences": {},
  "deployedLinkReferences": {}
}